:020000040800F2
:1000000000000220F92000083F21000841210008DB
:100010004321000845210008472100080000000096
:10002000000000000000000000000000492100085E
:100030004B210008000000004D2100084F2100085E
:1000400053210008552100085721000859210008B4
:100050005B2100085D2100082926000841260008D0
:100060005926000871260008892600086921000821
:100070006B2100086D2100086F2100087121000824
:1000800073210008752100087721000879210008F4
:100090007B2100087D2100087F210008A12600089F
:1000A0008321000885210008872100088921000894
:1000B0008B210008D91C00088F210008912100081D
:1000C0009321000895210008972100089921000834
:1000D0009B2100089D2100089F210008A121000804
:1000E00005270008A5210008A7210008A92100086C
:1000F000AB210008AD210008AF210008B1210008A4
:10010000B3210008B5210008091B0008B921000827
:10011000BB210008BD210008BF210008C121000843
:10012000111C0008C5210008C7210008C9210008CA
:10013000CB210008CD210008CF210008D1210008E3
:10014000D3210008D5210008D7210008D9210008B3
:10015000DB210008DD210008DF210008E121000883
:10016000E3210008E5210008E7210008E921000853
:10017000EB210008ED210008EF210008F121000823
:10018000F3210008F521000810B5054C237833B998
:10019000044B13B10448AFF300800123237010BD5A
:1001A0000402002000000000D4B10008084B10B584
:1001B0001BB108490848AFF300800848036803B939
:1001C00010BD074B002BFBD0BDE81040184700BF07
:1001D0000000000008020020D4B100080402002042
:1001E00000000000162031A1ABBE30484168002954
:1001F00001D0364A11600168002901D132490160FD
:100200008168C268002900D08D46002A01D002F51D
:10021000807A00218B460F462548264A121A07F09D
:10022000CBFC06F0F9FF152025A1ABBE2449002028
:1002300001B40B780131002B15D0202BF9D0222BE3
:1002400001D0272B01D11A0001E02022013902B48C
:1002500001300B780131002B05D09A42F9D10022F0
:100260004B1E1A70E5E76946020092006A446B462D
:100270009A4206D9043A14681D6815601C6004335C
:10028000F6E76C460725AC43A54604000D000A4876
:10029000002802D00948AFF3008007F067FC200077
:1002A000290001F041FC07F04DFC00BF00000020D8
:1002B00004020020385F0020000000000000000061
:1002C00010000020FF000000385F00209401002093
:1002D000C3785BB9037818485A09203203F01F032A
:1002E000012101FA03F340F822307047F0B4134BB8
:1002F0004778D968827804780F4EC943C1F3022148
:10030000C1F10405EDB20F2307FA05F50B41EDB27B
:1003100013402B4304F1604202F561421B01DBB242
:1003200082F800330378012203F01F015B098A4041
:1003300046F82320F0BC704700E100E000ED00E04B
:10034000F0B444680A680D790F4B24F0407424F42B
:100350008074224342EA0522426001F1080294CAF5
:1003600086684D793C4322433340134343EA4503B7
:1003700083600A7DC36A013AD2B223F4700343EA70
:100380000253C362F0BC7047FDF7FFC070B4074D65
:10039000066842688468C168054B68683243224336
:1003A0000A43034013436B6070BC70470023014055
:1003B000E030FCFF836819B923F0010383607047C4
:1003C00043F0010383607047092970B41DD9A1F17E
:1003D0000A0606EB4606C5680724B440B34025EA82
:1003E00004042343062AC3601BD90C2A27D90D3ADB
:1003F00002EB8202C36A1F24944001FA02F223EA4C
:1004000004010A43C26270BC704701EB41060569F2
:100410000724B440B34025EA04042343062A0361B9
:10042000E3D8013A02EB8202436B1F24944001FAA5
:1004300002F223EA04010A43426370BC7047073AA0
:1004400002EB8202036B1F24944001FA02F223EABA
:1004500004010A43026370BC704700BF836819B986
:1004600023F480738360704743F480738360704724
:10047000836819B923F400738360704743F40073F1
:1004800083607047F0B40F684E68094D8C68CA6885
:100490002B6847EA06010C4340F6FE712243814077
:1004A00023EA010302FA00F003432B60F0BC70471B
:1004B0000074004041B9084901220B6802FA00F0BB
:1004C00023EA000008607047034901220B6802FA22
:1004D00000F01843086070470074004049B90949AA
:1004E0004FF480520B6802FA00F023EA0000086023
:1004F000704704494FF480520B6802FA00F0184329
:10050000086070470074004002683749002310B447
:1005100022F001022124884202600360436083606C
:10052000C360036144614DD0304B984235D0304BAD
:10053000984239D02F4B98423DD02F4B984247D00C
:100540002E4B984248D02E4B98421DD02D4B9842AE
:100550001ED02D4B984243D02C4B98421DD02C4B93
:10056000984221D02B4B984225D02B4B98422FD02C
:100570002A4B984230D02A4B984205D0294B9842BA
:1005800006D05DF8044B7047274A43F8942CF8E7EF
:100590004FF03D5243F8AC2CF3E74FF4746243F84C
:1005A000202C5DF8044B70474FF4741243F8382C3C
:1005B0005DF8044B70474FF0746243F8502C5DF8BF
:1005C000044B7047194B3D229A605DF8044B70470D
:1005D000174A43F8642CD4E7164A43F87C2CD0E73A
:1005E0003D2243F8082CCCE710600240286002400E
:1005F00040600240586002407060024088600240E3
:10060000A0600240B86002401064024028640240CA
:1006100040640240586402407064024088640240B2
:10062000A0640240B864024000003D200060024027
:100630003D000020400F0020F0B401F118028CCAE8
:100640000E68CD684C693543254315434E6A4C6BA3
:100650008A6B1D433D438B6A35431D4306680B4B34
:100660002C432243334013430360CC6A42690B6B33
:1006700022F007022343134343610B6943604B6835
:1006800083608B68C360F0BC704700BF3F801CF084
:10069000036819B923F001030360704743F00103B5
:1006A00003607047036822B923F4002303600161EB
:1006B000704743F40023036001617047036819B970
:1006C00023F480230360704743F480230360704762
:1006D00010B4094B094C0A4AA04294BF1846104670
:1006E00011F0005F21F0F02121F0821114BFC160F0
:1006F00081605DF8044B7047006002400F64024067
:10070000006402400B060CD54369AAB143F0800394
:10071000802943610FD0036801F01E011943016075
:100720007047802907D0002AF5D1036801F01E0127
:1007300023EA01010160704723F0800380294361AF
:10074000F3D170470022F0B513460126032704E0D9
:100750000133102B02F102022FD00D6806FA03F4C8
:1007600034EA0505F4D1D0F800E007FA02F5ED43CC
:100770000EEA050EC0F800E091F804E0D0F800C0E1
:100780000EFA02FE4EEA0C0EC0F800E091F804E00A
:100790000EF1FF3EBEF1010F07FA02FC0ED9C4684C
:1007A00024EA0C04C460CC79C568944001332C431E
:1007B000102BC46002F10202CFD1F0BDD0F808E0E6
:1007C00005EA0E05856091F805E085680EFA02FEDF
:1007D0004EEA05058560456825EA040444608C7985
:1007E00045689C40A4B22C434460D8E70369194291
:1007F00014BF012000207047018370474183704778
:1008000010B4CB0800EB830001F00701046A8900F3
:100810000F238B4024EA03030362036A8A4042EAFF
:10082000030101625DF8044B704700BF29B9054A16
:10083000136B23EA000010637047024B1A6B1043DE
:10084000186370470038024029B9054A136C23EA3F
:10085000000010647047024B1A6C10431864704714
:100860000038024029B9054A536C23EA000050645D
:100870007047024B5A6C104358647047003802406E
:10088000F0B44A880F888D88CC880B894E893A430A
:100890002A4322438D89CC891A43324303882A4351
:1008A000224303F4415313439BB20380838B23F40D
:1008B00000631B041B0C83830B8A0382F0BC70470C
:1008C000002307220282038043808380C380038148
:1008D00043818381C3817047234A038890429BB23E
:1008E00012D002F5806290420ED0B0F1804F0BD052
:1008F000A2F58032904207D002F58062904203D088
:1009000002F58062904203D14A8823F070031343BA
:10091000164A904220D002F5806290421CD00A898B
:1009200023F440739BB2134303804B68C36210B43B
:100930000D4C0B880385A04207D00D4B984204D084
:10094000012383825DF8044B70478B7A0386012371
:1009500083825DF8044B704703804B68C3620B8849
:10096000038501238382704700000140001000408E
:100970000004014000234FF0FF32426003800381F6
:1009800043808372704700BF038829B923F00103B5
:100990001B041B0C038070479BB243F001030380D0
:1009A000704700BF83899BB21AB923EA0101818194
:1009B0007047194381817047038A828911EA0300D5
:1009C00092B203D0114214BF01200020704700BF33
:1009D000C94389B201827047838823F070031B04E6
:1009E0001B0C838083889BB219438180704700BFB2
:1009F0002DE9F04F2DED048BCF4C9FEDD07A85B0D3
:100A0000002602460290884604F500652346F2EC73
:100A1000017A5E6067EE877A083343ED027AAB4273
:100A20009FEDC78AF3D101230022C349C548DFF8EF
:100A30006C9305F08DFA4FF48072C349BE4805F0FF
:100A400093FEC24AD9F800101368C14801338B42A3
:100A5000136080F29F80D0ED005ABE4ADFEDB87A75
:100A600002F1F8011346B3EC017A994277EE877AE6
:100A7000F9D1B94BDFEDB26AB2EC017A9342E7EEFD
:100A8000076AF9D1B54BB64AC3ED006AB54B127887
:100A90001968B54EF4EEE56AF1EE10FAC4BFF0EE57
:100AA000665AC0ED006A8A4200F0188179DC96ED42
:100AB000007A9FEDA36AF6EE006A77EE666AF4EEBE
:100AC000C66AF1EE10FA40F26F81B2EE046A86EE69
:100AD000867A9FED9A6AC6ED006A37EE067A1A604A
:100AE0009FEDA25AA24B87EE856AB2EE045AF7EE4A
:100AF000007AE5EEC57A66EE265A26EE077A67EEAC
:100B0000A57A83ED006AB4EEE77A9A4BF1EE10FA1B
:100B1000C4BFF0EE477A83ED007A9FED897AD8BFA3
:100B2000C3ED007AF4EE476AF1EE10FA4AD1924A28
:100B300083ED007A1378F0EE477A002B46D18F4B85
:100B400003931946804A9FED8E6A002000230FE030
:100B500092ED007AB4EEE77AF1EE10FA15D8106053
:100B60000133B3F5007F02F1040201F1040144D026
:100B70007F2BEDDC92ED007A67EE066AB4EEE77A41
:100B8000F1EE10FAC1ED006AE9D937EE677A82ED2D
:100B9000007AE5E70023F0EE485A80ED008A136002
:100BA0005BE7D6ED006A9FED656AB6EE007A76EEF9
:100BB000876AB2EE045A86EE857AC6ED006A37EE91
:100BC000067A8CE76C4B1B78002BB8D0012B00F019
:100BD00090805D4B03F50062D3ED006A9FED587A7B
:100BE000F4EEE67AF1EE10FAB8BF36EEE77AA3EC4F
:100BF000017A9A42F0D1614B0393624FDFF848B11A
:100C0000DFED4F9AA7F1040ADAED010A17ED010AA8
:100C10009FED4B9AA0EEA90A04F058FBDBED008A89
:100C2000B0EE408A05F0CCFE68EE808AB0EE480A4D
:100C3000BBEC018A05F080FE28EE000A47ED018A30
:100C40000AF1080A0AED010AAA4507F10807DBD1F3
:100C5000039BDFF84CB183ED009A48484A4A5B4653
:100C6000802104F0DDFD494B1B78012B00F0A380AF
:100C700001231A463049334805F06AF9D6ED007A67
:100C8000434A4346B0EE007AF4EEC77AF1EE10FA2A
:100C90002168D8BF196004F10804CCBF1160D6EDFB
:100CA000007AAC4202F1040203F10403ECD1B0EE8D
:100CB000007AF4EEC77AF1EE10FA0ADD4FF4807391
:100CC0003449019300914346029A3149324805F074
:100CD000D3F905B0BDEC048BBDE8F08FD6ED006A0A
:100CE0009FED166AB2EE045A86EE857A37EE067AE2
:100CF000F6E6224B03931946134A9FED216A00231F
:100D000006E00133B3F5007F01F104013FF475AF54
:100D100092ED007ADFED0A6AF4EEC77AF1EE10FA8E
:100D200001DA77EE676A7F2BE2EC016AE9DC66EEB6
:100D3000866AC1ED006AE4E7F0460020CDCC4C3F66
:100D400000000000A89D0008E42E00202C020020D6
:100D500028020020EC2E00205C2F00204002002002
:100D6000D30A002020020020380200200000784230
:100D70003402002044020020381700200C4F0020CD
:100D800000004842F4460020E43A002034130020DA
:100D9000E42A0020E4260020D426002010010020B0
:100DA000E8420020CDCC4C3FF0EE466A1FED037ABE
:100DB00086ED006A93E63549D9F800000B68642295
:100DC000013302FB00F293420B60314B314A93ED49
:100DD000007A20DAD2ED007AB4EEE77AF1EE10FA7A
:100DE0002CDCF2EE086AF4EEE67AF1EE10FA40D46A
:100DF000DBF800302849DA1FF5EE006A082A0B609C
:100E000067EEA67A04D8B4EEE77AF1EE10FA2ADC9F
:100E100001F0A8F82CE7B4EEC97A0023F1EE10FA3D
:100E200082ED009A0B6009DCF0EE497ADBF80030C5
:100E30001949DA1F082A0B60E5D9E9E7DBF8003029
:100E4000D91F082912D8F2EE087AB4EEE77AF1EE4B
:100E500010FA82ED007A11D40F4AF5EE007A136091
:100E600067EE277ACFE701F059F801E70A4A1360E5
:100E7000CEE7B6EE009A67EE897AD7E7064AF6EE35
:100E8000007A136067EE277ABDE700BF3C020020BE
:100E9000E43A002024020020300200202DE9F04135
:100EA00001219CB080464448444E454D454FFFF7D4
:100EB000BDFC01214FF480700024FFF7D3FC4022D9
:100EC000032301A9404801928DF808308DF80B40AA
:100ED000FFF738FC3046FFF717FB3C4B0F934FF4FE
:100EE000806203F500710E9513924FF400634FF486
:100EF00000554FF480723046149315954FF400332B
:100F0000012516924FF400221793CDF844800D94DA
:100F10001094129418941A941B941995FFF7C2FB1D
:100F200029463046FFF7CAFB30460DA9FFF784FB80
:100F30002A4630461021FFF7E5FB29463046FFF7E9
:100F4000A7FB03A80394049405940694FFF71EFAE4
:100F500038464FF080524FF0C06307A909920A93B8
:100F600007948DF820408DF821400B948DF8305077
:100F7000FFF7E6F923462A4638460621FFF724FA0A
:100F800029463846FFF774FA29463846FFF766FACD
:100F900029463846FFF70EFA3822052368468DF8B1
:100FA00001508DF803508DF800208DF80230FFF7C6
:100FB0008FF91CB0BDE8F0810100400010640240D0
:100FC0004C2001400020014000000240F04200207F
:100FD00000B5012185B00846FFF736FC01A8FFF7F0
:100FE000C9FC002340F2747201A94FF080400292C4
:100FF000ADF80430ADF80C30ADF80630FFF76CFCFE
:1010000020214FF08040FFF7E7FC01214FF08040A6
:10101000FFF7BAFC05B05DF804FB00BFF0B5012195
:1010200097B005460846FFF701FC01214FF000503C
:10103000FFF70AFC01214FF400100024FFF7F6FB34
:101040002A4E2B488DF80B401022032301A9019250
:101050008DF80830FFF776FB24224FF4206303A9B4
:1010600020460392059304940694FFF70BFA30464A
:10107000FFF74AFA1F4B0B951F4A09934FF0606523
:1010800003F500710795089240274FF480634FF4F1
:1010900000654FF4005230460A970D930E954FF4B9
:1010A000003301250F924FF480774FF40022119303
:1010B0000C9412941494159410971395FFF7F2FA68
:1010C00029463046FFF7FAFA304607A9FFF7B4FA87
:1010D00029463046FFF7DCFA29462046FFF7FEF99D
:1010E00029462046FFF7E6F917B0F0BD88600240B8
:1010F00000000240E43600200874004070B500246F
:1011000082B04FF6E075244E244B254A20468DE8E8
:1011100030005A2103F096FD334601940095214A90
:10112000E121052003F08EFD3346019400951E4A0F
:10113000D2214FF4967003F085FD3346019400955B
:101140001A4ABE214FF4967003F07CFD3346019499
:101150000095174AAA214FF4967003F073FD3346A9
:1011600001940095134A96214FF4967003F06AFD9E
:10117000334601940095104A82214FF4967003F093
:1011800061FD0194009533460C4A6E214FF4967030
:1011900003F058FD02B070BD8001002088010020DE
:1011A0006C8700088C870008B4870008B88700089F
:1011B000BC870008C0870008C4870008C8870008EB
:1011C0002DE9F04194B001F01BF802F0B3FD0320CB
:1011D00003F0D4F900204FF6E07403F075F8002115
:1011E00000254E4E0094084655237D2203F048FF0B
:1011F0002946009455234FF4A072822003F040FF4B
:10120000334600940195464A464FDFF83C8105215C
:101210000A2003F017FD334601940095424A052148
:10122000162003F00FFD3346019400953F4A192123
:10123000162003F007FD3346019400953C4A2D210A
:10124000162003F0FFFC334601940095394A4121F2
:10125000162003F0F7FC33463A468DE830000521AE
:101260003C2003F0EFFC3A4633468DE8300019216C
:101270003C2003F0E7FC33468DE830002E4A2D2158
:101280003C2003F0DFFC33468DE830002B4A41213F
:101290003C2003F0D7FC28460094F0234FF4A072C2
:1012A000642103F0EDFEDE2340F23B126E210220AA
:1012B000009503F009FFFFF721FF214BDFF88CE0D9
:1012C00001950FCB0DF1080C8CE80F00BEE80F0064
:1012D00006AF0FC79EE803001A4B47F8040B39709E
:1012E0000FCB0DAF009487E80F00624633461921FB
:1012F000872003F0A7FC06AA43468DE830002D2185
:10130000872003F09FFC8DE8300043463A46412198
:10131000872003F097FC14B0BDE8F081880100201D
:10132000CC870008E0870008D0870008D487000831
:10133000D8870008DC870008E8870008F0870008E5
:10134000F88700082088000880010020088800082D
:1013500000B5012183B01020FFF768FA01220023B5
:101360006946064800928DF807208DF804308DF804
:101370000530FFF7E7F903B05DF804FB0010024009
:1013800010B4FCEEC07A83B0CDED017ABDF8044014
:10139000944203D303B05DF8044B7047091B89B234
:1013A0001A4603B05DF8044B02F04ABE07EE902ADD
:1013B000F8EE677A82B080EE270A07EE901AF8EE10
:1013C000677A20EE270AFCEEC07ACDED017ABDF8EF
:1013D0000420914201D9602A07D94FF6E07203F147
:1013E000780189B202B002F02BBEA2F140011F29A0
:1013F00009D9A2F120011F290DD9103A0F2A8CBF5B
:1014000000221F22EBE703F1780140F2FF7289B25C
:1014100002B002F015BE40F21D52E0E72DE9F043A4
:10142000B54B1C7895B064BBB44CB54D22682B68A5
:101430009A4234DDB34F3A780132D2B23A70B249AF
:10144000DFF8C0920DA806F02DFC4FF6E0780023DF
:1014500001930DAACDF80080AC4B05213C2003F090
:10146000F1FB3E78002E00F01781731E032B40F233
:101470000681042E00F2F68023682B6015B0BDE8CB
:10148000F083012C16D0022C00F0AF80032C39D051
:101490009A4B9B4D1B682B6015B0BDE8F0832DDA8D
:1014A000984F3B78002B00F02381013BDBB21A46BA
:1014B0003B70C4E7914C924D22682B689A4240F3EE
:1014C0000081934E3378022B9ABF0133DBB20323A2
:1014D0003370012B00F0B081022B00F0A081032BB0
:1014E000CAD14FF6E07200238DE80C001921874B1A
:1014F000884A3C2003F0A6FB2368BEE7BDD0814F9D
:101500003A789CE77D4C7E4D23682A68934200F32D
:101510004A81B2DA80490A780AB1013AD2B27F4BE5
:101520000A700FCB00270DAE86E80F0032460197F8
:101530000097764B0521872003F084FB3246019704
:101540000097724B1921872003F07CFB32460197EC
:1015500000976E4B2D21872003F074FB32460197D4
:1015600000976A4B4121872003F06CFB6C4BDFF83E
:10157000E0C101970FCB0DF1080888E80F00BCE827
:101580000F000DF1180EAEE80F009CE80300654B4C
:101590004EF8040B8EF800100FCB4FF6E07986E87A
:1015A0000F004246CDF80090584B1921872003F0D8
:1015B00049FB06AA0197CDF800905B4B2D218720AF
:1015C00003F040FB32460197CDF80090564B412185
:1015D000872003F037FB0197CDF800904B4B534A1F
:1015E00041213C2003F02EFB46E7444E444D336836
:1015F0002A68934240F3AE804D490F78002F7FF464
:101600003CAF4FF6E07801200197CDF800803F4BCA
:101610000870484A2D213C2003F014FBF0234FF4BE
:10162000A07264213846CDF8008003F029FD2046E1
:10163000DE2340F23B126E21009703F045FD334B51
:101640003D4A5A2138468DE8800103F0FBFA364BBB
:10165000CDF800800197394AE121052003F0F2FA24
:1016600033680AE74FF6E07200238DE80C0005218D
:10167000264B334A5B2003F0E5FA2368FDE64FF67C
:10168000E07200238DE80C000521204B2D4A5B20E1
:1016900003F0D8FA3E78ECE601961C4B2A4ACDF8C6
:1016A000008005213C2003F0CDFA0196CDF80080A2
:1016B000164B264A05216E2003F0C4FA99F8006003
:1016C000D3E680F2A780124E33780BB1013BDBB238
:1016D0003370002B7FF4FDAE4FF6E0728DE80C0006
:1016E00019210A4B184A3C2003F0ACFA3378F0E693
:1016F0001A463B70A3E600BF35130020CC0A002039
:101700003C170020D30A00207888000888010020B8
:10171000401B00209888000834130020A888000887
:10172000F88700082088000880010020F087000862
:1017300038170020A088000830880008508800086A
:101740008488000880880008E087000888870008EF
:1017500008880008BFF691AE3E490A78012A7FF456
:101760008CAE00274FF6E0780197CDF800803A4B19
:101770003A4A0F703C202D2103F064FA3846F023DA
:101780004FF4A0726421CDF8008003F079FCDE23D1
:10179000204640F23B126E21009703F095FCFFF7C4
:1017A000ADFC336869E62E4B01221A7000F060FB35
:1017B0002C4B0FCB00260DAF87E80F003A46264B87
:1017C000019605218720009603F03CFA3A46224B09
:1017D000019619218720009603F034FA3A461E4BF1
:1017E00001962D218720009603F02CFA3A461A4BD9
:1017F000019641218720009603F024FA4FF6E0730A
:101800008DE84800184A144B41213C2003F01AFA95
:10181000236832E63FF431AE144E337859E74FF681
:10182000E07200238DE80C0019210B4B104A3C207C
:1018300003F008FA337852E64FF6E07200238DE8A1
:101840000C001921044B0B4A3C2003F0FBF93378C0
:1018500042E600BF3817002088010020E887000812
:1018600034130020A8880008B8880008401B002016
:10187000908800088888000810B53B490B78022B37
:1018800082B025D900244FF6E0738DE81800374A5E
:10189000374B0C700A20052103F0D4F9344B354A3C
:1018A0000194009419210A2003F0CCF9304B314AFD
:1018B000019400942D210A2003F0C4F901940094AE
:1018C0002B4B2C4A41210A2003F0BCF902B010BD79
:1018D0000133DBB20024012B0B700194009425D05E
:1018E000022B244A224B4FF005014FF00A002AD068
:1018F00003F0A8F9019400941D4B1E4A19210A20F7
:1019000003F0A0F901940094194B1A4A2D210A20E2
:1019100003F098F94FF6E0738DE81800134A144B62
:1019200041210A2003F08EF902B010BD104B114A7C
:1019300005210A2003F086F94FF6E0738DE81800C0
:101940000A4A0B4BAEE703F07DF9094B094A0194B3
:10195000009419210A2003F075F94FF6E0738DE821
:101960001800024A024BA5E735130020CC87000877
:10197000880100208887000830B5174D85B0012107
:101980000220FEF761FF00244FF47A73284640F2EC
:10199000DC5201A90293ADF80420ADF80C40ADF87B
:1019A0000640FEF799FF012211462846FEF7FAFF8E
:1019B00028460121FEF7E8FF1D22012368468DF825
:1019C00001408DF802408DF800208DF80330FEF7BD
:1019D0007FFC05B030BD00BF0004004030B5154DA0
:1019E00085B001210820FEF72FFF0024124B02933F
:1019F000284601A9ADF80440ADF80C40ADF806400A
:101A0000FEF76AFF012211462846FEF7CBFF0121AF
:101A10000A48FEF7B9FF3222012368468DF80140DB
:101A20008DF802408DF800208DF80330FEF750FC51
:101A300005B030BD000C004020480100000400400B
:101A40002DE9F041294B2A4E2A4C356827688446F7
:101A50000FCB86B005EB85054FEA850EC7EB071760
:101A600002AD85E80F000EF1050E07F178084FF67C
:101A7000E07300271FFA8EF18DE8880062461E4B46
:101A80001FFA88F002F00EFE2368316803EB83032F
:101A90009B00B42B05DD0123194403293160236029
:101AA00016DD01EB810189003C290BDD00212A466E
:101AB00001910091012531600F4B256005218720A0
:101AC00003F0C0F823680133236006B0BDE8F0815D
:101AD00001EB81018900053189B201970097064B1E
:101AE0002A46872003F0AEF83168DAE7A8880008B4
:101AF000480200201401002088010020014B1868D2
:101B0000704700BF245F002008B501210448FEF79C
:101B100053FF18B1034A13680133136008BD00BFB7
:101B2000000C0040245F002000B583B04FF48074A7
:101B3000FFF746FB1F4B204A20480094192104F070
:101B40009DFB1F4B1F4A20480094652104F096FB23
:101B50001E4B1F4A1F480094112104F08FFB1E4B9F
:101B60001E4A1F480094112104F088FB9FED1D0AB6
:101B70001D4B1E4A1E480094202104F063FA2046A3
:101B8000FFF78CF92046FFF749FAFFF7E1FB194B05
:101B90001948802219460092402200F0F3FD0121ED
:101BA000154800F021FEFFF713FAFFF7E5FEFFF7F7
:101BB00015FFFEE7D40A0020EC840008004F002047
:101BC000601B002050850008185F00204C02002098
:101BD000E4860008F44E00208C06002028870008C8
:101BE0000C5700203333733F54220020D4210020AF
:101BF000D426002000040240441B0020034B1A8B13
:101C0000824200D07047184600F0F0BD441B00200F
:101C100010B5254C254823882549B3FA83F35B0981
:101C200000EB43204FF48072238003F011FD214B21
:101C30001B78032B1FD0022B25D0012B2BD093B167
:101C40001D491E48FEF7D4FE21881D4B1A4803EBA0
:101C500041214FF4807203F04BFD10211948BDE87B
:101C60001040FEF735BD4FF48073144A10491648F2
:101C700004F016FBE4E74FF48073104A0C49134854
:101C800004F00EFBDCE74FF480730C4A084910485F
:101C900004F006FBD4E74FF48073084A04490D486A
:101CA00004F0FEFACCE700BFD00A0020F04200208A
:101CB00040170020401B002038130020340F002064
:101CC000E436002010640240F44E0020185F00202B
:101CD000004F00200C5700202DE9F0472DED028B1E
:101CE000012182B05448FEF767FE20B902B0BDEC76
:101CF000028BBDE8F08701214F48FEF769FE4F4B8C
:101D00001B7843B3012B61D04D4A137833B1013BAB
:101D1000137002B0BDEC028BBDE8F087494D4A4C10
:101D200002232846137000F04DFD2B6847482360BE
:101D30000121FEF75BFD464B1870002843D0454B50
:101D400022681B689A42D1D002B0BDEC028BBDE87C
:101D5000F047FFF763BB404D404E414FDFED418AF6
:101D600005F5FE791624F5EC016A97ED007A96EDFB
:101D7000000ADFF8EC80C6EE877A20460023642252
:101D8000DC2167EEA87AFCEEE77ACDED017ABDF8AA
:101D900004E008EE10EAFFF7F3FAB8EE488A2046AE
:101DA0004FF6E073B0EE480A6422DC21FFF7E8FA50
:101DB0000234A945A6EC018AA4B2D4D12A4BD8F8A2
:101DC00000201A60A0E7FFF757FDB8E7224D244F27
:101DD000264E05F1FC091824D7ED007A3378DFF898
:101DE0008C80FCEEE77A2046CDED017AAA46BDF85C
:101DF0000420B5EC010A6421FFF7D8FAD7ED007A88
:101E00009AED000A3378FCEEE77AA01CCDED017A5A
:101E1000BDF8042080B26421FFF7C8FA04344D45B0
:101E2000A4B2D9D198F80030632B9ABF0133DBB24A
:101E30000023337068E700BF00040040381700201B
:101E400019010020441B0020CC0A00200010024091
:101E5000180100203C170020104F002010530020D4
:101E6000E43A00200000C842F04E0020D20A0020D0
:101E700018481949194ADFF89CC0F0B50123184FDA
:101E8000037013700B70174E174DDFF88CE0174C72
:101E90001748184A184903233B600F233360642313
:101EA0002B609623CCF80030CEF80030002323605E
:101EB00003601360114F124E124D134C1348144A15
:101EC0000B6002213B6033602B6023600360116074
:101ED000F0BD00BF740100206201002061010020FC
:101EE000700100206401002068010020F020002023
:101EF000F42000201021002008210020F8200020DC
:101F0000FC2000200C2100200421002000210020C2
:101F10001C0100206C0100207801002010B50C4B42
:101F20000C4C1A68002AC4BF00221A60236853B1FF
:101F3000094A0A4C0A48116800232370037009B942
:101F40000123136010BDFFF7D9FD2060F0E700BF4B
:101F5000F82000200821002000210020620100203C
:101F600074010020F8B5574C2368002B2BD0FFF7E5
:101F7000C5FD554E23683268544DC01AB0EB420F70
:101F8000286002DD524B1A78D2B1524C2368002BE4
:101F900007DDFFF7B3FD23684F4AC01A0023106026
:101FA00023604E4B1A7892B14D4C23783BB94D4A81
:101FB0002968126891422FDC474B00221A60F8BD55
:101FC00001221A70E1E7FFF799FD2060CFE745484D
:101FD000414C01682468A2F1AA3282FB0172A2EB93
:101FE000E172A242E0DC404F3A684FF0010E02FA83
:101FF0000EF2A1423A6083F800E01CDC33683B4AF1
:10200000234482FB0312A2EBE37203EBD37352006F
:102010005B1002603360C7E7334D2D492A680B70AF
:102020003F2A0BDC324B985CFFF70AFD01220023AC
:1020300022702B60C0E772443A60B5E7612A24D071
:102040000ADD732A2DD012DC652A26D06A2A20D117
:10205000284B2E221A70E9E74C2A2AD00FDD542A89
:1020600023D05E2A15D1234B2D221A70DEE77A2A5F
:1020700023D0F62A0DD11F4B24221A70D6E7472A07
:1020800007D11C4B3A221A70D0E71A4B27221A703C
:10209000CCE7184B23221A70C8E7164B40221A705F
:1020A000C4E7144B3F221A70C0E7124B21221A706A
:1020B000BCE7104B2C221A70B8E70E4B6B221A703B
:1020C000B4E700BFF82000206401002010210020A8
:1020D0006101002008210020F4200020740100206C
:1020E000620100207001002000210020ABAAAA2A72
:1020F000200100207C0100200649074A074B9A4234
:10210000BEBF51F8040B42F8040BF8E704488047BF
:1021100004480047E0B1000800000020040200204D
:1021200001220008E50100083349344A002301E098
:1021300041F8043B9142FBD3FFF7F6FCFEE7FEE7D4
:10214000FEE7FEE7FEE7FEE7FEE7FEE7FEE7FEE767
:10215000FEE7FEE7FEE7FEE7FEE7FEE7FEE7FEE757
:10216000FEE7FEE7FEE7FEE7FEE7FEE7FEE7FEE747
:10217000FEE7FEE7FEE7FEE7FEE7FEE7FEE7FEE737
:10218000FEE7FEE7FEE7FEE7FEE7FEE7FEE7FEE727
:10219000FEE7FEE7FEE7FEE7FEE7FEE7FEE7FEE717
:1021A000FEE7FEE7FEE7FEE7FEE7FEE7FEE7FEE707
:1021B000FEE7FEE7FEE7FEE7FEE7FEE7FEE7FEE7F7
:1021C000FEE7FEE7FEE7FEE7FEE7FEE7FEE7FEE7E7
:1021D000FEE7FEE7FEE7FEE7FEE7FEE7FEE7FEE7D7
:1021E000FEE7FEE7FEE7FEE7FEE7FEE7FEE7FEE7C7
:1021F000FEE7FEE7FEE7000004020020385F002053
:1022000039493A4BD1F88820394842F47002C1F874
:1022100088201A68002142F001021A6099601A6849
:1022200022F0847222F480321A6058601A6882B0F8
:1022300022F480221A60D960009101911A6842F458
:1022400080321A601A4603E0009BB3F5C06F09D0D4
:10225000136803F400330193009B01330093019B47
:10226000002BF1D0214B1B6813F4003318BF01235E
:102270000193019B012B05D01B4B4FF000629A602C
:1022800002B07047194B1B491A6C1B4842F0805230
:102290001A640A6842F480420A609A689A609A68EE
:1022A00042F400429A609A6842F4A0529A605860E0
:1022B0001A6842F080721A601A4611680B4B890145
:1022C000FBD50E4A40F2057111609A6822F00302B4
:1022D0009A609A6842F002029A601A46936803F084
:1022E0000C03082BFAD1C7E700ED00E000380240EC
:1022F000103000240070004019544007003C024098
:102300002DE9F041064684B015460C46A1B14B1E9E
:102310000B423FD0E70705D50121FFF7F1FF002869
:1023200040F0B780A00707D52A4602213046FFF7C4
:10233000E7FF002840F0AD80610700F1AE80220782
:1023400000F1B580E30600F1BC80A70600F1C38070
:10235000600600F19680210600F1C680E20500F1DA
:10236000CD80A30500F1D580670500F1DD80200553
:1023700000F1E580E10400F1FA80A20400F1EB80B5
:10238000630400F10081E30B40F00981002004B0F8
:10239000BDE8F081A24B1A680A427AD15B68194203
:1023A00077D1802900F0318100F21281082900F0F4
:1023B000208100F2FE80022900F02B81042900F028
:1023C0002681012965D10627012D00F0FF80002D0F
:1023D00014BF0022022200238DE80C0021461A4679
:1023E000304600F025FA204600F074FB5FFA80F8D2
:1023F00030468C4E00F038FB716C894B08F0FC02C3
:1024000002F1804202F59C3241F48041716408F08F
:102410000301966889004FF00F0E0EFA01FE26EABE
:102420000E0696609668C0B200FA01F131439160E1
:102430001968E243114019605968114059601968E0
:1024400021431960D9681140D9609968012D02EAC9
:1024500001029A6000F0B68015B1DA682243DA60B2
:102460009A6814439C600A22012303A88DF80C701B
:102470008DF80E808DF80D208DF80F30FDF728FFB8
:1024800084E72A4640213046FFF73AFF00283FF410
:1024900062AF012004B0BDE8F0812A460421304635
:1024A000FFF72EFF0028F4D122077FF54BAF2A4615
:1024B00008213046FFF724FF0028EAD1E3067FF524
:1024C00044AF2A4610213046FFF71AFF0028E0D11A
:1024D000A7067FF53DAF2A4620213046FFF710FFC3
:1024E00000283FF435AFD4E72A4680213046FFF775
:1024F00007FF0028CDD1E2057FF533AF2A464FF420
:1025000080713046FFF7FCFE0028C2D1A3057FF59D
:102510002BAF2A464FF400713046FFF7F1FE00283A
:10252000B7D167057FF523AF2A464FF48061304667
:10253000FFF7E6FE0028ACD120057FF51BAF2A4649
:102540004FF400613046FFF7DBFE0028A1D1E10423
:102550007FF513AF0BE02A464FF400513046FFF7EA
:10256000CFFE002895D163047FF50DAF0BE02A461E
:102570004FF480513046FFF7C3FE002889D1A204F2
:102580007FF5FEAEE7E72A464FF480413046FFF77D
:10259000B7FE00287FF47DAFE30B3FF4F7AE2A4689
:1025A00030464FF40041FFF7ABFE00283FF4EEAE9B
:1025B0006FE7202929D0402927D010297FF469AF5F
:1025C0000A2701E7DA681443DC604CE72A4602E791
:1025D000B1F5006F0BD00ED9B1F5005F07D01AD955
:1025E000B1F5804F03D0B1F5004F7FF452AF2827EB
:1025F000EAE60927E8E6B1F5007F06D0B1F5806F7D
:10260000F5D0B1F5807F7FF444AF1727DCE60827CB
:10261000DAE60727D8E6B1F5805FE8D039E700BFF2
:10262000003C01400038024008B5044B5A69D2070B
:1026300003D501205861FFF7E1FA08BD003C0140D5
:1026400008B5044B5A69920703D502205861FFF779
:10265000D5FA08BD003C014008B5044B5A69520741
:1026600003D504205861FFF7C9FA08BD003C0140BA
:1026700008B5044B5A69120703D508205861FFF7C3
:10268000BDFA08BD003C014008B5044B5A69D206AA
:1026900003D510205861FFF7B1FA08BD003C014096
:1026A00008B5174B5A69910625D4154B5A6952063D
:1026B0001CD4134B5A69100613D4114B5A69D10517
:1026C00009D40F4B5A69920504D54FF40070586134
:1026D000FFF794FA08BD4FF480705861FFF78EFA47
:1026E000EFE780205861FFF789FAE6E7402058615C
:1026F000FFF784FADDE720205861FFF77FFAD4E77F
:10270000003C014008B51E4B5A69500531D41C4BA2
:102710005A69110527D41A4B5A69D2041DD4184B93
:102720005A69900413D4164B5A69510409D4144BB6
:102730005A69120404D54FF400405861FFF75EFA5D
:1027400008BD4FF480405861FFF758FAEFE74FF4A7
:1027500000505861FFF752FAE5E74FF48050586196
:10276000FFF74CFADBE74FF400605861FFF746FAD9
:10277000D1E74FF480605861FFF740FAC7E700BF28
:10278000003C014070B582B00446BDF8185043616A
:102790000161012622836583084600251146022235
:1027A000FFF7AEFD618B606901952B462A460096C6
:1027B00000F03EF86572E56065602560A67202B0C3
:1027C00070BD00BFC368026803609A1A002B4260A4
:1027D00005DB14BF00230223037218467047012350
:1027E00003721846704700BF4172704710B4026907
:1027F000038B1269847A4169134014BF01220022BD
:102800009442096909D08272428B33B9437A1140EC
:1028100033B939B1C368013BC3605DF8044B7047FD
:102820000029F7D0C3685DF8044B0133C3607047DB
:10283000F0B49DF810709DF8146009B9F0BC7047B1
:102840000D462D49884238D02C4988422FD02C493A
:10285000884226D02B4988421DD02B49884244D03B
:102860002A4988423BD02A49884232D029498842A5
:1028700029D02949884204D1284C216B41F4807128
:102880002163274C2271A3712560E771667121468F
:10289000F0BCFDF757BF214C216B41F008012163CB
:1028A000E4E71E4C216B41F004012163DBE71B4C84
:1028B000216B41F002012163D2E7184C216B41F0FA
:1028C00001012163CCE7154C216B41F080012163AC
:1028D000D7E7124C216B41F040012163D1E70F4C47
:1028E000216B41F020012163CBE70C4C216B41F0BF
:1028F00010012163C5E700BF000002400004024050
:1029000000080240000C0240001002400014024087
:1029100000180240001C0240002002400038024023
:10292000142100202DE9F04F83B09DF830B09DF8C0
:10293000347011B903B0BDE8F08F99463F4B98420F
:102940005ED03F4B984255D03E4B98424CD03E4BC8
:10295000984243D03D4B98426AD03D4B984261D05B
:102960003C4B984258D03C4B98424FD03B4B9842FE
:1029700004D13B4C236B43F4807323638A4601925A
:10298000064600254FF001084AFA05F2D3070FD595
:1029900008FA05F4012C4FF0000105D06408012C61
:1029A00001F10101FAD189B23A463046FDF728FF1C
:1029B0000135102DE8D12B4A9DF804309371022483
:1029C00030461146C2F800A082F8079082F805B0A0
:1029D000147103B0BDE8F04FFDF7B4BE204C236B7B
:1029E00043F008032363BEE71D4C236B43F004034D
:1029F0002363B5E71A4C236B43F002032363ACE770
:102A0000174C236B43F001032363A6E7144C236B9D
:102A100043F080032363B1E7114C236B43F0400381
:102A20002363ABE70E4C236B43F020032363A5E73E
:102A30000B4C236B43F0100323639FE7000002401D
:102A40000004024000080240000C02400010024056
:102A50000014024000180240001C02400020024006
:102A60000038024014210020164A9042034623D029
:102A700002F58062904221D002F5806290421FD020
:102A800002F5806290420FD002F58062904211D030
:102A900000200D4A93420BD00C4A934206D00C4AB8
:102AA000934208BF082070470420F8E707207047CA
:102AB00006207047052070470120EAE70220E8E77A
:102AC0000320E9E70004024000180240001C024015
:102AD000002002400346012B4FF0000005D95B089F
:102AE0000130012B80B2FAD17047704738B5102100
:102AF000A948FDF781FE2021A748FDF77FFE0221AE
:102B0000A548FDF77BFEA54B012199811A46194680
:102B10001389A24C9D07FBD00B891806F8D402211B
:102B20009D48A389FDF768FE9D4B013BFDD1202107
:102B30009948FDF763FE02219748FDF75FFE974B2A
:102B4000CB2199811A4619461389944C9B07FBD0D7
:102B50000B891D06F8D402218F48A389FDF74CFE8E
:102B600020218D48FDF748FE02218B48FDF746FEE7
:102B700039232246A38121461389884C9807FBD02C
:102B80000B891B06F8D402218348A389FDF734FE84
:102B900020218148FDF730FE02217F48FDF72EFEFF
:102BA0002C232246A381214613897C4C9D07FBD010
:102BB0000D8905F08005ADB2002DF5D102217648D2
:102BC000A389FDF719FE20217348FDF715FE0221A8
:102BD0007148FDF713FE2246A581214613896F4CEB
:102BE0009807FBD00B891B06F8D402216A48A389F9
:102BF000FDF702FE20216848FDF7FEFD0221664830
:102C0000FDF7FCFD34232246A38121461389634C42
:102C10009D07FBD00B891806F8D402215E48A389D2
:102C2000FDF7EAFD20215C48FDF7E6FD02215A4848
:102C3000FDF7E4FD02232246A38121461389574C68
:102C40009B07FBD00B891D06F8D402215248A389AB
:102C5000FDF7D2FD20215048FDF7D0FD02214E485E
:102C6000FDF7CCFDCF232246A381214613894B4C8F
:102C70009807FBD00D8905F08005ADB2002DF5D188
:102C800002214548A389FDF7B7FD20214248FDF701
:102C9000B3FD02214048FDF7B1FD2246A581214642
:102CA00013893E4C9B07FBD00B891D06F8D40221EB
:102CB0003948A389FDF7A0FD20213748FDF79CFD89
:102CC00002213548FDF79AFDC1232246A381214602
:102CD0001389324C9807FBD00B891B06F8D40221CC
:102CE0002D48A389FDF788FD20212B48FDF784FDA1
:102CF00002212948FDF782FD30232246A381214687
:102D00001389264C9D07FBD00B891806F8D40221A5
:102D10002148A389FDF770FD20211F48FDF76EFDB6
:102D200002211D48FDF76AFDE8232246A3812146C2
:102D300013891A4C9B07FBD00B891D06F8D402217E
:102D40001548A389FDF758FD20211348FDF754FDD0
:102D500002211148FDF752FD85232246A381214619
:102D600013890E4C9807FBD00D8905F08005ADB294
:102D7000002DF5D102210848A389FDF73DFD202152
:102D80000548FDF739FD02210348FDF737FD2246CE
:102D9000A581214606E000BF000C0240003C004037
:102DA00080841E001389AA4C9B07FBD00B891D064B
:102DB000F8D40221A748A389FDF71EFD2021A548CC
:102DC000FDF71AFD0221A348FDF718FD78232246DE
:102DD000A381214613899E4C9807FBD00B891B06C3
:102DE000F8D402219B48A389FDF706FD20219948CC
:102DF000FDF704FD02219748FDF700FDEA23224676
:102E0000A38121461389924C9D07FBD00D8905F0C3
:102E10008005ADB2002DF5D102218E48A389FDF7C2
:102E2000EBFC20218B48FDF7E7FC02218948FDF7E8
:102E3000E5FC2246A58121461389854C9807FBD0E5
:102E40000D8905F08005ADB2002DF5D10221814834
:102E5000A389FDF7D1FC20217E48FDF7CDFC02219E
:102E60007C48FDF7CBFC2246A58121461389784C8E
:102E70009B07FBD00B891D06F8D402217548A38956
:102E8000FDF7BAFC20217348FDF7B8FC0221714818
:102E9000FDF7B4FCED232246A381214613896C4C37
:102EA0009807FBD00B891B06F8D402216948A38937
:102EB000FDF7A2FC20216748FDF79EFC0221654832
:102EC000FDF79CFC64232246A38121461389604CB4
:102ED0009D07FBD00B891806F8D402215D48A38911
:102EE000FDF78AFC20215B48FDF786FC022159484A
:102EF000FDF784FC03232246A38121461389544C09
:102F00009B07FBD00B891D06F8D402215148A389E9
:102F1000FDF772FC20214F48FDF76EFC02214D4861
:102F2000FDF76CFC12232246A38121461389484CED
:102F30009807FBD00B891B06F8D402214548A389CA
:102F4000FDF75AFC20214348FDF756FC0221414879
:102F5000FDF754FC81232246A381214613893C4C72
:102F60009D07FBD00B891806F8D402213948A389A4
:102F7000FDF742FC20213748FDF740FC022135488F
:102F8000FDF73CFCF7232246A38121461389304CF0
:102F90009B07FBD00B891D06F8D402212D48A3897D
:102FA000FDF72AFC20212B48FDF726FC02212948A9
:102FB000FDF724FC20232246A38121461389244CBB
:102FC0009807FBD00B891B06F8D402212148A3895E
:102FD000FDF712FC20211F48FDF710FC02211D48BF
:102FE000FDF70CFCC0232246A38121461389184C0F
:102FF0009D07FBD00B891806F8D402211548A38938
:10300000FDF7FAFB20211348FDF7F6FB02211148DA
:10301000FDF7F4FB23232246A381214613890C4CA0
:103020009B07FBD00B891D06F8D402210948A38910
:10303000FDF7E2FB20210748FDF7E0FB02210548F0
:10304000FDF7DCFBC1232246A381214604E000BF3B
:10305000003C0040000C02401389A94C9807FBD0AB
:103060000B891B06F8D40221A648A389FDF7C4FBEF
:103070002021A448FDF7C0FB0221A248FDF7BEFBBA
:1030800010232246A381214613899D4C9D07FBD026
:103090000B891806F8D402219A48A389FDF7ACFBE6
:1030A00020219848FDF7AAFB02219648FDF7A6FBD0
:1030B000C5232246A38121461389914C9B07FBD04F
:1030C0000B891D06F8D402218E48A389FDF794FBD5
:1030D00020218C48FDF790FB02218A48FDF78EFBEA
:1030E0003E232246A38121461389854C9807FBD0B5
:1030F0000B891B06F8D402218248A389FDF77CFBCB
:1031000020218048FDF778FB02217E48FDF776FB01
:1031100028232246A38121461389794C9D07FBD0A1
:103120000B891806F8D402217648A389FDF764FBC1
:1031300020217448FDF762FB02217248FDF75EFB17
:10314000C7232246A381214613896D4C9B07FBD0E0
:103150000B891D06F8D402216A48A389FDF74CFBB0
:1031600020216848FDF748FB02216648FDF746FB31
:1031700086232246A38121461389614C9807FBD000
:103180000B891B06F8D402215E48A389FDF734FBA6
:1031900020215C48FDF732FB02215A48FDF72EFB47
:1031A00036232246A38121461389554C9D07FBD027
:1031B0000B891806F8D402215248A389FDF71CFB9D
:1031C00020215048FDF718FB02214E48FDF716FB61
:1031D00048232246A38121461389494C9B07FBD0F3
:1031E0000B891D06F8D402214648A389FDF704FB8C
:1031F00020214448FDF702FB02214248FDF7FEFA78
:103200003A232246A381214613893D4C9807FBD0DF
:103210000B891B06F8D402213A48A389FDF7ECFA82
:1032200020213848FDF7E8FA02213648FDF7E6FA92
:1032300055232246A38121461389314C9D07FBD09B
:103240000B891806F8D402212E48A389FDF7D4FA79
:1032500020212C48FDF7D2FA02212A48FDF7CEFAA8
:10326000B1232246A38121461389254C9B07FBD01D
:103270000D8905F08005ADB2002DF5D10221214860
:10328000A389FDF7B9FA20211E48FDF7B5FA0221FE
:103290001C48FDF7B3FA2246A58121461389184C34
:1032A0009D07FBD00B891806F8D402211548A38985
:1032B000FDF7A2FA20211348FDF79EFA02211148DA
:1032C000FDF79CFA18232246A381214613890C4C52
:1032D0009B07FBD00B891D06F8D402210948A3895E
:1032E000FDF78AFA20210748FDF788FA02210548F0
:1032F000FDF784FAB6232246A381214604E000BFED
:10330000003C0040000C02401389A84C9807FBD0F9
:103310000B891B06F8D40221A548A389FDF76CFA96
:103320002021A348FDF768FA0221A148FDF766FABB
:1033300008232246A381214613899C4C9D07FBD07C
:103340000B891806F8D402219948A389FDF754FA8D
:1033500020219748FDF750FA02219548FDF74EFAD3
:1033600082232246A38121461389904C9B07FBD0E0
:103370000B891D06F8D402218D48A389FDF73CFA7C
:1033800020218B48FDF738FA02218948FDF736FAEB
:1033900027232246A38121461389844C9807FBD01A
:1033A0000B891B06F8D402218148A389FDF724FA72
:1033B00020217F48FDF722FA02217D48FDF71EFA01
:1033C000F2232246A38121461389784C9D07FBD026
:1033D0000D8905F08005ADB2002DF5D102217448AC
:1033E000A389FDF709FA20217148FDF705FA0221AA
:1033F0006F48FDF703FA2246A581214613896B4CDD
:103400009807FBD00B891B06F8D402216848A389D2
:10341000FDF7F2F920216648FDF7F0F90221644832
:10342000FDF7ECF92A232246A381214613895F4C3C
:103430009D07FBD00D8905F08005ADB2002DF5D1BB
:1034400002215B48A389FDF7D7F920215848FDF7F1
:10345000D3F902215648FDF7D1F92246A58121462C
:103460001389524C9807FBD00D8905F08005ADB249
:10347000002DF5D102214E48A389FDF7BDF9202189
:103480004B48FDF7B9F902214948FDF7B7F9224643
:10349000A58121461389454C9B07FBD00D8905F07A
:1034A0008005ADB2002DF5D102214148A389FDF779
:1034B000A3F920213E48FDF79FF902213C48FDF782
:1034C0009DF92246A58121461389384C9D07FBD0E2
:1034D0000B891806F8D402213548A389FDF78CF929
:1034E00020213348FDF788F902213148FDF786F99C
:1034F000EF232246A381214613892C4C9B07FBD046
:103500000B891D06F8D402212948A389FDF774F917
:1035100020212748FDF772F902212548FDF76EF9B1
:103520002B232246A38121461389204C9807FBD0E8
:103530000D8905F08005ADB2002DF5D102211C48A2
:10354000A389FDF759F920211948FDF755F9022102
:103550001748FDF753F92246A58121461389134CDC
:103560009B07FBD00D8905F08005ADB2002DF5D18C
:1035700002210F48A389FDF73FF920210C48FDF7F0
:103580003BF902210A48FDF739F92246A581214677
:103590001389064C9D07FBD00B891806F8D402212D
:1035A0000348A389FDF728F9202103E0003C0040EF
:1035B000000C0240A948FDF71FF90221A748FDF7BA
:1035C0001DF901232246A38121461389A44C9B07A0
:1035D000FBD00B891D06F8D40221A048A389FDF772
:1035E0000BF920219D48FDF707F902219B48FDF7C3
:1035F00005F93F232246A38121461389984C980759
:10360000FBD00B891B06F8D402219448A389FDF74F
:10361000F3F820219148FDF7F1F802218F48FDF7DA
:10362000EDF826232246A381214613898C4C9D0761
:10363000FBD00B891806F8D402218848A389FDF72E
:10364000DBF820218548FDF7D7F802218348FDF7F4
:10365000D5F801232246A38121461389804C9B077C
:10366000FBD00B891D06F8D402217C48A389FDF705
:10367000C3F820217948FDF7C1F802217748FDF70A
:10368000BDF8E0232246A38121461389744C980794
:10369000FBD00B891B06F8D402217048A389FDF7E3
:1036A000ABF820216D48FDF7A7F802216B48FDF724
:1036B000A5F80F232246A38121461389684C9D0754
:1036C000FBD00B891806F8D402216448A389FDF7C2
:1036D00093F820216148FDF78FF802215F48FDF73C
:1036E0008DF831232246A381214613895C4C9B0728
:1036F000FBD00B891D06F8D402215848A389FDF799
:103700007BF820215548FDF777F802215348FDF753
:1037100075F82B232246A38121461389504C980724
:10372000FBD00B891B06F8D402214C48A389FDF776
:1037300063F820214948FDF75FF802214748FDF76B
:103740005DF80C232246A38121461389444C9D0732
:10375000FBD00B891806F8D402214048A389FDF755
:103760004BF820213D48FDF747F802213B48FDF783
:1037700045F80E232246A38121461389384C9B0726
:10378000FBD00B891D06F8D402213448A389FDF72C
:1037900033F820213148FDF72FF802212F48FDF79B
:1037A0002DF808232246A381214613892C4C980723
:1037B000FBD00B891B06F8D402212848A389FDF70A
:1037C0001BF820212548FDF717F802212348FDF7B3
:1037D00015F84E232246A38121461389204C9D07CC
:1037E000FBD00B891806F8D402211C48A389FDF7E9
:1037F00003F820211948FCF7FFFF02211748FCF7C6
:10380000FDFFF1232246A38121461389144C9B0717
:10381000FBD00B891D06F8D402211048A389FCF7C0
:10382000EBFF20210D48FCF7E7FF02210B48FCF7D6
:10383000E5FF37232246A38121461389084C9807C8
:10384000FBD00B891B06F8D402210448A389FCF79E
:10385000D3FF20210148FCF7CFFF03E0000C02401A
:10386000003C00400221A848FCF7C8FF072322467D
:10387000A38121461389A54C9D07FBD00B8918060F
:10388000F8D40221A048A389FCF7B6FF20219E4866
:10389000FCF7B2FF02219C48FCF7B0FF1023224640
:1038A000A38121461389994C9B07FBD00B891D06E8
:1038B000F8D402219448A389FCF79EFF2021924866
:1038C000FCF79AFF02219048FCF798FF0323224659
:1038D000A381214613898D4C9807FBD00B891B06C9
:1038E000F8D402218848A389FCF786FF2021864866
:1038F000FCF782FF02218448FCF780FF0E2322465A
:10390000A38121461389814C9D07FBD00B891806A2
:10391000F8D402217C48A389FCF76EFF20217A4865
:10392000FCF76AFF02217848FCF768FF092322466A
:10393000A38121461389754C9B07FBD00D8905F0A7
:103940008005ADB2002DF5D102216F48A389FCF7A7
:1039500053FF20216C48FCF74FFF02216A48FCF717
:103960004DFF2246A58121461389684C9D07FBD057
:103970000B891806F8D402216348A389FCF73CFFA1
:1039800020216148FCF73AFF02215F48FCF736FF2F
:10399000E1232246A381214613895C4C9B07FBD07F
:1039A0000D8905F08005ADB2002DF5D102215648F4
:1039B000A389FCF721FF20215348FCF71DFF0221BA
:1039C0005148FCF71BFF2246A581214613894F4C25
:1039D0009D07FBD00B891806F8D402214A48A38919
:1039E000FCF70AFF20214848FCF706FF0221464861
:1039F000FCF704FF0E232246A38121461389434C82
:103A00009B07FBD00B891D06F8D402213E48A389F1
:103A1000FCF7F2FE20213C48FCF7EEFE02213A487A
:103A2000FCF7ECFE14232246A38121461389374C70
:103A30009807FBD00B891B06F8D402213248A389D2
:103A4000FCF7DAFE20213048FCF7D6FE02212E4892
:103A5000FCF7D4FE03232246A381214613892B4C75
:103A60009D07FBD00B891806F8D402212648A389AC
:103A7000FCF7C2FE20212448FCF7BEFE02212248AA
:103A8000FCF7BCFE11232246A381214613891F4C5B
:103A90009B07FBD00B891D06F8D402211A48A38985
:103AA000FCF7AAFE20211848FCF7A6FE02211648C2
:103AB000FCF7A4FE07232246A38121461389134C59
:103AC0009807FBD00B891B06F8D402210E48A38966
:103AD000FCF792FE20210C48FCF78EFE02210A48DA
:103AE000FCF78CFE31232246A38121461389074C23
:103AF0009D07FBD00B891806F8D402210248A38940
:103B0000FCF77AFE202103E0000C0240003C00405C
:103B10008548FCF771FE02218348FCF76FFEC12344
:103B20002246A38121461389804C9B07FBD00B8939
:103B30001D06F8D402217C48A389FCF75DFE2021F4
:103B40007948FCF759FE02217748FCF757FE4823D5
:103B50002246A38121461389744C9807FBD00B8918
:103B60001B06F8D402217048A389FCF745FE2021EA
:103B70006D48FCF741FE02216B48FCF73FFE08232D
:103B80002246A38121461389684C9D07FBD00B89EF
:103B90001806F8D402216448A389FCF72DFE2021E1
:103BA0006148FCF729FE02215F48FCF727FE0F233E
:103BB0002246A381214613895C4C9B07FBD00B89CD
:103BC0001D06F8D402215848A389FCF715FE2021D0
:103BD0005548FCF711FE02215348FCF70FFE0C2359
:103BE0002246A38121461389504C9807FBD00B89AC
:103BF0001B06F8D402214C48A389FCF7FDFD2021C7
:103C00004948FCF7F9FD02214748FCF7F7FD31234D
:103C10002246A38121461389444C9D07FBD00B8982
:103C20001806F8D402214048A389FCF7E5FD2021BD
:103C30003D48FCF7E1FD02213B48FCF7DFFD362360
:103C40002246A38121461389384C9B07FBD00B8960
:103C50001D06F8D402213448A389FCF7CDFD2021AC
:103C60003148FCF7C9FD02212F48FCF7C7FD0F239F
:103C70002246A381214613892C4C9807FBD00B893F
:103C80001B06F8D402212848A389FCF7B5FD2021A2
:103C90002548FCF7B3FD02212348FCF7AFFD1123B3
:103CA0002246A38121461389204C9D07FBD00B8916
:103CB0001806F8D402211C48A389FCF79DFD1C4B73
:103CC000013BFDD120211848FCF798FD0221164840
:103CD000FCF794FD154B292199811A461946138941
:103CE000124C9B07FBD00B891D06F8D402210E480D
:103CF000A389FCF781FD20210B48FCF77FFD022101
:103D00000948FCF77BFD2C232246A3812146138919
:103D1000064C9807FBD00B891B06F8D402210248F9
:103D2000A389FCF769FD38BD000C0240003C00404F
:103D300040420F00F0B5002483B003278DE89000C7
:103D4000234601222021AD48AD4EFEF771FD012230
:103D500015468DE8900023460221A848FEF768FD2D
:103D600023462A4601971021A4480095FEF760FDDE
:103D70000221A248FCF740FD2946304601F0BEF979
:103D8000FEF7B4FE9F4AA049A04B9C4814800C80CB
:103D90004FF4A0722021F0275A801D711F80FCF77C
:103DA0002DFD02219548FCF729FD2A233246B381D7
:103DB00031461389924C9E07FBD00D8905F0800592
:103DC000ADB2002DF5D102218C48A389FCF714FD7A
:103DD00020218A48FCF710FD02218848FCF70EFDDF
:103DE0002246A58121461389854C9D07FBD00D896C
:103DF00005F08005ADB2002DF5D102217F48A389E1
:103E0000FCF7FAFC20217D48FCF7F6FC02217B48F8
:103E1000FCF7F4FC2246A58121461389784C9807CB
:103E2000FBD00D8905F08005ADB2002DF5D1022142
:103E30007248A389FCF7E0FC20217048FCF7DCFC09
:103E400002216E48FCF7DAFC2246A581214613893F
:103E50006B4C9B07FBD00B891F06F8D402216748E7
:103E6000A389FCF7C9FC20216448FCF7C5FC0221AA
:103E70006248FCF7C3FCEF232246A3812146138945
:103E80005F4C9E07FBD00B891D06F8D402215B48CE
:103E9000A389FCF7B1FC20215848FCF7AFFC0221B4
:103EA0005648FCF7ABFC2B232246A38121461389FD
:103EB000534C9807FBD00D8905F08005ADB2002D5D
:103EC000F5D102214D48A389FCF796FC20214B48EF
:103ED000FCF792FC02214948FCF790FC2246A581A0
:103EE00021461389464C9B07FBD00D8905F08005C0
:103EF000ADB2002DF5D102214048A389FCF77CFC2E
:103F000020213E48FCF778FC02213C48FCF776FC77
:103F10002246A58121461389394C9F07FBD00B8986
:103F20001E06F8D402213548A389FCF765FC202140
:103F30003248FCF761FC02213048FCF75FFC0123AA
:103F40002246A381214613892D4C9D07FBD00B8966
:103F50001806F8D402212948A389FCF74DFC20213A
:103F60002648FCF749FC02212448FCF747FC3F2384
:103F70002246A38121461389214C9B07FBD00B8944
:103F80001F06F8D402211D48A389FCF735FC202127
:103F90001A48FCF733FC02211848FCF72FFC2C23AD
:103FA0002246A38121461389154C9E07FBD00B891D
:103FB0001D06F8D402211148A389FCF71DFC2746F1
:103FC00026464FF4963520210C48FCF715FC0221BB
:103FD0000A48FCF713FCFF23A38123899807FCD030
:103FE0003B891906F9D402210448B389FCF704FC83
:103FF00020210248FCF700FC0AE000BF000C024050
:10400000003C0040325F0020285F00202C5F002031
:1040100002210A48FCF7F2FBFF23B38123899A07A8
:10402000FCD03B891B06F9D402210448B389FCF774
:10403000E3FB013DC7D103B0F0BD00BF000C02405F
:104040002DE9F04107460D469D4820211446FCF716
:10405000D5FB02219A48FCF7D1FB9A4B2A21998182
:104060001A4619461389974E9807FBD00B891B06F1
:10407000F8D402219248B389FCF7BEFB2021904876
:10408000FCF7BAFB4FEA172802218D48FCF7B6FB74
:104090003246A6F80C80314613898A4E9807FBD029
:1040A0000B891B06F8D402218548B389FCF7A4FBD1
:1040B00020218348FCF7A0FBFFB202218048FCF7D7
:1040C0009DFB3246B781314613897E4E9807FBD05F
:1040D0000B891B06F8D402217948B389FCF78CFBC5
:1040E00020217748FCF788FB02217548FCF786FB06
:1040F0003246A6F80C8031461389724E9807FBD0E1
:104100000B891B06F8D402216D48B389FCF774FBB8
:1041100020216B48FCF770FB02216948FCF76EFB1D
:104120003246B78131461389664E9F07FBD00B8913
:104130001806F8D402216248B389FCF75DFB202100
:104140005F48FCF75BFB02215D48FCF757FB2B2324
:104150003246B381314613895A4E9B07FBD00B89F7
:104160001F06F8D402215648B389FCF745FB2021ED
:104170005348FCF741FB2F0A02215148FCF73EFB54
:104180003246B781314613894E4E9807FBD00B89D2
:104190001B06F8D402214A48B389FCF72DFB2021E5
:1041A0004748FCF729FBEDB202214548FCF726FB06
:1041B0003246B58131461389424E9807FBD00B89B0
:1041C0001B06F8D402213E48B389FCF715FB2021D9
:1041D0003B48FCF711FB02213948FCF70FFB324644
:1041E000B78131461389374E9807FBD00B891B06E0
:1041F000F8D402213248B389FCF7FEFA2021304876
:10420000FCF7FAFA02212E48FCF7F8FA3246B5819B
:10421000314613892B4D9F07FBD00B891E06F8D41E
:1042200002212748AB89FCF7E7FA20212448FCF754
:10423000E5FA02212248FCF7E1FA2C232A46AB8159
:10424000294613891F4D9807FBD00B891B06F8D40C
:1042500002211B48AB89FCF7CFFA20211848FCF754
:10426000CBFA02211648FCF7C9FAC4F307232A4601
:10427000AB8129461389134D9F07FBD00B891E067E
:10428000F8D402210E48AB89FCF7B6FA20210C487D
:10429000FCF7B2FAE4B20A480221FCF7AFFA2A4668
:1042A000AC812846138907499C07FBD003891B066C
:1042B000F8D48B8902480221BDE8F041FCF79CBA92
:1042C000000C0240003C00402DE9F843A84B80461A
:1042D0002021A8481D885C88FCF790FA0221A54897
:1042E000FCF78CFAA44B2A21013D013C9981ADB227
:1042F000A4B21A4619464FEA182913899E4E9B0705
:10430000FBD00F8907F08007BFB2002FF5D1022143
:104310009848B389FCF770FA20219648FCF76CFAAC
:1043200002219448FCF76AFA3246B7813146138974
:10433000914E9F07FBD00F8907F08007BFB2002F77
:10434000F5D102218B48B389FCF756FA2021894820
:10435000FCF752FA02218748FCF750FA3246B7813F
:1043600031461389844E9807FBD00B891B06F8D47D
:1043700002218048B389FCF73FFA20217D48FCF7F1
:104380003BFA02217B48FCF739FA2B0A3246B3810B
:1043900031461389784E9F07FBD00B891806F8D455
:1043A00002217448B389FCF727FA20217148FCF7F1
:1043B00023FAEDB202216F48FCF720FA3246B581AC
:1043C000314613896C4D9B07FBD00B891F06F8D42F
:1043D00002216848AB89FCF70FFA20216548FCF7F9
:1043E0000DFA02216348FCF709FA2B232A46AB8118
:1043F00029461389604D9E07FBD00E8906F0800682
:10440000B6B2002EF5D102215A48AB89FCF7F4F977
:1044100020215848FCF7F0F902215648FCF7EEF944
:104420002A46AE8129461389534D9807FBD00E8941
:1044300006F08006B6B2002EF5D102214D48AB89B8
:10444000FCF7DAF920214B48FCF7D6F9022149485C
:10445000FCF7D4F92A46AE8129461389464D9B07BD
:10446000FBD00B891F06F8D402214248AB89FCF728
:10447000C3F920213F48FCF7BFF902213D48FCF772
:10448000BDF9230A2A46AB81294613893A4D9E0776
:10449000FBD00B891806F8D402213648AB89FCF70B
:1044A000ABF920213348FCF7A7F9E4B202213148E7
:1044B000FCF7A4F92A46AC81294613892E4C9B07A8
:1044C000FBD00B891F06F8D402212A48A389FCF7E8
:1044D00093F920212748FCF791F902212548FCF7A0
:1044E0008DF92C232246A38121461389224C9E0755
:1044F000FBD00B891D06F8D402211E48A389FCF7C6
:104500007BF95FFA89F95FFA88F8254627464FF468
:10451000963620211748FCF76FF902211548FCF761
:104520006DF9A4F80C9023899807FCD02B89190603
:10453000F9D402210F48BB89FCF75EF920210D4810
:10454000FCF75AF902210B48FCF758F9A7F80C8040
:1045500023899A07FCD02B891B06F9D40221054830
:10456000BB89FCF749F9013ED3D1BDE8F88300BF10
:104570002C5F0020000C0240003C004038B5202198
:1045800005464548FCF73AF902214348FCF736F95D
:10459000424B362199811A46194613893F4C980798
:1045A000FBD00B891B06F8D402213B48A389FCF7FA
:1045B00023F975B1012D46D0022D58D0032D29D0F5
:1045C000374B4FF4A070F0210022188059801A71E7
:1045D00038BD20213048FCF70FF902212E48FCF7A6
:1045E0000DF958232246A381214613892B4C9807A5
:1045F000FBD00B891B06F8D402212748A389FCF7BE
:10460000FBF8274BF0204FF4A0710122188059804D
:104610001A7138BD20212048FCF7EEF802211E480F
:10462000FCF7ECF8E8232246A381214613891B4CB2
:104630009807FBD00B891B06F8D402211648A389E2
:10464000FCF7DAF8BCE720211348FCF7D5F8022183
:104650001148FCF7D3F888232246A3812146138909
:104660000E4C9D07FBD00B891806F8D4C4E7202117
:104670000948FCF7C1F829460748FCF7BFF828238A
:104680002246A38121461389044C9B07FBD00B894A
:104690001D06F8D4D1E700BF000C0240003C0040EA
:1046A0002C5F00202DE9F04FB34DB44C2880B44D61
:1046B000248829801D784619A64287B040F3B98224
:1046C0005878AF4C08442080AB48002101801D7809
:1046D0005E78002E00F077810293A2F1200305930B
:1046E000109BDFF8A482C3F307230493119BC3F349
:1046F000072303930023C24644460193019A059B76
:1047000003FB0623029A526832F813B0002D00F022
:10471000548100260BFA06F31A0400F15A81119B0A
:10472000002BC0F24481964B96481F88019B8D193F
:1047300020211F44FCF762F802219248FCF75EF842
:104740002A23ADB2BFB2A8F80C30B8F808309907E8
:10475000FBD0BAF808301A06F7D402218948A38999
:10476000FCF74AF820218748FCF746F84FEA15295C
:1047700002218448FCF742F8A4F80C90B8F80830FD
:104780009B07FBD0BAF808301806F7D402217D4801
:10479000A389FCF731F820217A48FCF72DF8EDB217
:1047A00002217848FCF72AF8A581B8F80830990763
:1047B000FBD0BAF808301A06F7D402217148A38951
:1047C000FCF71AF820216F48FCF716F802216D4813
:1047D000FCF714F8A4F80C90B8F808309B07FBD04D
:1047E000BAF808301806F7D402216648A389FCF706
:1047F00003F820216348FBF7FFFF02216148FBF724
:10480000FDFFA581B8F808309907FBD0BAF8083049
:104810001A06F7D402215B48A389FBF7EDFF20219C
:104820005848FBF7EBFF02215648FBF7E7FF2B2325
:10483000A381B8F808309B07FBD0BAF808301D06F2
:10484000F7D402214F48A389FBF7D6FF20214D481A
:10485000FBF7D2FF3D0A02214A48FBF7CFFFA581B3
:10486000B8F808309807FBD0BAF808301906F7D422
:1048700002214448A389FBF7BFFF20214148FBF7F1
:10488000BBFFFFB202213F48FBF7B8FFA781B8F892
:1048900008309A07FBD0BAF808301B06F7D402217B
:1048A0003848A389FBF7A8FF20213648FBF7A4FF6F
:1048B00002213448FBF7A2FFA581B8F80830980719
:1048C000FBD0BAF808301906F7D402212D48A38985
:1048D000FBF792FF20212B48FBF78EFF022129488E
:1048E000FBF78CFFA781B8F808309A07FBD0BAF81D
:1048F00008301B06F7D402212248A389FBF77CFF6E
:1049000020212048FBF77AFF02211E48FBF776FFA3
:104910002C23A381B8F808309F07FBD0BAF80830E1
:104920001D06F7D402211748A389FBF765FF202154
:104930001448FBF761FF02211248FBF75FFFBDF847
:104940000C30A381B8F808309807FBD0BAF80830CB
:104950001906F7D402210B48A389FBF74DFF20214C
:104960000848FBF749FF02210648FBF747FF9DF87F
:104970004430A3810AE000BF285F00202C5F0020A4
:10498000325F0020000C0240003C0040B8F80830C4
:104990009A07FBD0BAF808301B06F7D40221A648C4
:1049A000A389FBF729FF029B1D78A44B19880136C8
:1049B000B5423FF6AFAE029B5E78019B01339E424B
:1049C00001933FF69BAE9D4B2944198007B0BDE88B
:1049D000F08F9B4B98481F88019B8D1920211F4405
:1049E000FBF70CFF02219448FBF708FF2A23ADB226
:1049F000BFB2A8F80C30B8F808309B07FBD0BAF863
:104A000008301806F7D402218B48A389FBF7F4FE7F
:104A100020218948FBF7F0FE4FEA1529022186483C
:104A2000FBF7ECFEA4F80C90B8F808309907FBD01F
:104A3000BAF808301A06F7D402217F48A389FBF799
:104A4000DBFE20217C48FBF7D7FEEDB202217A483D
:104A5000FBF7D4FEA581B8F808309B07FBD0BAF865
:104A600008301806F7D402217348A389FBF7C4FE67
:104A700020217148FBF7C0FE02216F48FBF7BEFE04
:104A8000A4F80C90B8F808309907FBD0BAF80830B1
:104A90001A06F7D402216848A389FBF7ADFE20214E
:104AA0006548FBF7A9FE02216348FBF7A7FEA58135
:104AB000B8F808309B07FBD0BAF808301D06F7D4C9
:104AC00002215D48A389FBF797FE20215A48FBF796
:104AD00095FE02215848FBF791FE2B23A381B8F8DD
:104AE00008309807FBD0BAF808301906F7D402212D
:104AF0005148A389FBF780FE20214F48FBF77CFE3D
:104B00003D0A02214C48FBF779FEA581B8F8083030
:104B10009A07FBD0BAF808301B06F7D402214648A2
:104B2000A389FBF769FE20214348FBF765FEFFB22E
:104B300002214148FBF762FEA781B8F808309807C8
:104B4000FBD0BAF808301906F7D402213A48A389F5
:104B5000FBF752FE20213848FBF74EFE0221364873
:104B6000FBF74CFEA581B8F808309A07FBD0BAF8DD
:104B700008301B06F7D402212F48A389FBF73CFE1F
:104B800020212D48FBF738FE02212B48FBF736FE8B
:104B9000A781B8F808309D07FBD0BAF8083018068E
:104BA000F7D402212448A389FBF726FE20212248BE
:104BB000FBF724FE02212048FBF720FE2C23A381D3
:104BC000B8F808309907FBD0BAF808301A06F7D4BD
:104BD00002211948A389FBF70FFE20211648FBF795
:104BE0000BFE02211448FBF709FEBDF81030A3812B
:104BF000B8F808309B07FBD0BAF808301F06F7D486
:104C000002210D48A389FBF7F7FD20210A48FBF795
:104C1000F3FD02210848FBF7F1FD9DF84030A38128
:104C2000B8F808309D07FBD0BAF808301806F7D45A
:104C3000B4E601464CE500BF000C0240285F0020AE
:104C4000325F00202DE9F04782B0184F184DDDF893
:104C50002890DDF82C802980824614461E46388034
:104C6000227842B10A2A13D00D2A334606D10134E4
:104C70002278002AF6D102B0BDE8F087388829886A
:104C8000CDF80480CDF800900134FFF70BFDE7E785
:104C90002B887278013313442B8063780D2B06BF69
:104CA0000134002353463B800134D9E7285F0020BC
:104CB000325F00202DE9F04FBA4D8DB02C88029262
:104CC00084420793029BDDF858E09ABF04F1FF3657
:104CD000B6B206469C420F4602D8013CA3B20293EC
:104CE0006B88079ABB429CBF03F1FF37BFB2934268
:104CF00002D8013B9BB20793029A964280F0A481AE
:104D0000C6EB020B0FFA8BF30193079B9F42C0F097
:104D10009181C3EB07080FFA88F300934FF6FF73F6
:104D20000B9301230A93009B019A1946914280F24A
:104D30007A8102EBD2756D105FFA8EF30893CEF391
:104D400007230993330A0393F3B2DFF860B20593A4
:104D50003B0A0493FBB2D8465C4606932021924856
:104D6000FBF74CFD02219048FBF748FD2A23ABF8E6
:104D70000C30BBF808309A07FBD0B8F808301B0697
:104D8000F7D402218848A389FBF736FD2021864805
:104D9000FBF732FDBDF80CA083480221FBF72EFD86
:104DA000A4F80CA0BBF808309807FBD0B8F808307E
:104DB0001906F7D402217C48A389FBF71DFD2021A9
:104DC0007948FBF719FDBDF8149077480221FBF7ED
:104DD00015FDA4F80C90BBF808309A07FBD0B8F882
:104DE00008301B06F7D402216F48A389FBF704FDA6
:104DF00020216D48FBF700FD02216B48FBF7FEFC0C
:104E0000A4F80CA0BBF808309807FBD0B8F808301D
:104E10001906F7D402216448A389FBF7EDFC202191
:104E20006148FBF7E9FC02215F48FBF7E7FCA4F8C7
:104E30000C90BBF808309A07FBD0B8F808301B0676
:104E4000F7D402215848A389FBF7D6FC2021564805
:104E5000FBF7D4FC02215448FBF7D0FC2B23A381A1
:104E6000BBF808309807FBD0B8F808301906F7D41B
:104E700002214D48A389FBF7BFFC20214A48FBF7DC
:104E8000BBFCBDF810A048480221FBF7B7FCA4F812
:104E90000CA0BBF808309A07FBD0B8F808301B0606
:104EA000F7D402214048A389FBF7A6FC20213E4805
:104EB000FBF7A2FCBDF818903B480221FBF79EFCD3
:104EC000A4F80C90BBF808309807FBD0B8F808306D
:104ED0001906F7D402213448A389FBF78DFC202161
:104EE0003148FBF789FC02212F48FBF787FCA4F827
:104EF0000CA0BBF808309A07FBD0B8F808301B06A6
:104F0000F7D402212848A389FBF776FC2021264804
:104F1000FBF772FC02212448FBF770FCA4F80C900C
:104F2000BBF808309807FBD0B8F808301906F7D45A
:104F300002211D48A389FBF75FFC20211A48FBF7DB
:104F40005DFC02211848FBF759FC2C23A381BBF818
:104F500008309A07FBD0B8F808301B06F7D40221B6
:104F60001148A389FBF748FC20210F48FBF744FCBC
:104F700002210D48FBF742FCBDF82430A381BBF8A9
:104F800008309807FBD0B8F808301906F7D402218A
:104F90000548A389FBF730FC20210348FBF72CFCD4
:104FA000022105E02C5F0020000C0240003C004084
:104FB0003248FBF723FCBDF82030A381BBF8083052
:104FC0009A07FBD0B8F808301B06F7D402212B480B
:104FD000A389FBF711FC029B9E421ED0019B5B4202
:104FE0009D4218DD0A9B1E44B6B2009B320AEB1AA2
:104FF0000392F2B205921BB2009A954209DA0B9A1B
:105000001744019ABFB213443A0A0492FAB21BB28F
:1050100006921D46A2E62B46EEE7079B9F42DDD196
:105020000DB0BDE8F08F009B03EBD3756D106D42A2
:105030002DB281E6C7EB030801230FFA88F20B9328
:105040000A93009213466FE6C2EB060B079A0FFA1B
:105050008BF3974201930BD2C7EB02080FFA88F348
:10506000009301230B934FF6FF730A93009B5BE6BB
:10507000C2EB07084FF6FF73DFE700BF000C0240EA
:105080002DE9F04182B01D46089C009406468846F2
:105090000B461746FFF70EFE2B463246414630467A
:1050A0000094FFF707FE41462B463A4638460094E7
:1050B000FFF700FE3A4630462B462946089402B0D8
:1050C000BDE8F041FFF7F6BD2DE9F04182B099420D
:1050D000089E0ED20C461D468046174623462146A2
:1050E000013400963A464046A4B2FFF7E3FDA542DC
:1050F000F4D802B0BDE8F081704700BFF0B56B4B4B
:10510000984289B004460D4633D0694B98424FD03F
:10511000684B984201D009B0F0BD03AE3046FBF7B2
:10512000CFFB654A136C43F400431364002D00F079
:105130008380012D00F08B80032D59D000234FF088
:1051400082714FF000725B4C0391049306930592B9
:10515000238823F040031B041B0C23803146204688
:10516000FBF78EFB23889BB243F04003238009B0FA
:10517000F0BD03AE3046FBF7A3FB4F4A536C43F43C
:1051800080535364002D38D0012D6CD0032D03D1F2
:1051900020460521FFF7B0FF4FF0827000214FF04D
:1051A00000722023414C0390049105920693CFE7AF
:1051B00003AE3046FBF784FB3F4A136C43F4804355
:1051C00013642DB3012D64D0022D57D0032D03D1CC
:1051D00020460521FFF790FF4FF0827000214FF02D
:1051E00000722023324C0390049105920693AFE79E
:1051F00020460621FFF780FFA0E7032205238DE864
:105200000C00E0212B462A462C48FDF78BFBC3E718
:10521000032405272B462A468DE890004FF4806131
:105220002748FDF77FFB8DE890002B462A460C218E
:105230002448FDF777FBCFE7032206238DE80C0017
:1052400038212B462A461E48FDF76CFB76E70621DF
:1052500003220023019100924FF4E0511A461948AD
:10526000FDF760FB6AE7052103220023019100920C
:1052700038211A461248FDF755FB8DE70521032218
:105280000023019100920D211A460F48FDF74AFBB9
:10529000A2E7052103220023019100924FF460410F
:1052A0001A460748FDF73EFB96E700BF0030014075
:1052B00000380040003C004000380240000002403E
:1052C00000040240000802400020024008B52DED15
:1052D000048BB0EE409AF0EE608A00F013F8F0EE26
:1052E000680AB0EE408AB0EE490A00F011F8F0EE1C
:1052F000400AB0EE480ABDEC048BBDE8084000F05F
:105300000BB800BFB0EE600A82B002B0704700BFB9
:1053100082B002B0704700BF00F000B810B582B094
:10532000CDED010A019B23F00042B2F1FF4FF0EEF8
:10533000407A19DC10EE100A20F00041B1F1FF4F65
:1053400012DCB3F17E5F49D09C1704F0020444EAFA
:10535000D07479B9022C3ED09FED400A032C18BFBF
:10536000B0EE670A02B010BD9DED017A37EE270A54
:1053700002B010BD12B3B2F1FF4F34D0B1F1FF4F04
:105380001CD08A1AD2153C2A22DC002B4BDB9DED67
:10539000010A87EE800A00F053F900F075F8012C3D
:1053A0003AD0022C2FD0002CE2D09FED2D7ADFEDE9
:1053B0002D7A30EE070A30EE670AD9E7DFED2A7A58
:1053C0009FED2A0A0028A8BFB0EE670A02B010BD00
:1053D0009FED250AE3E79FED230AC9E702B0BDE888
:1053E000104000F051B8B1F1FF4F21D0022CF2D0A3
:1053F000032C2AD0DFED1E7A9FED1E0A012C08BF78
:10540000B0EE670AB4E79FED167ADFED167A30EE5C
:10541000070A37EEC00AABE710EE103A03F100437B
:1054200000EE103AA4E73C32B1DA9FED120AB6E77B
:10543000022C10D0032C0BD0DFED0F7A9FED0F0A5A
:10544000012C08BFB0EE670A92E79FED040A8FE7D0
:105450009FED0B0A8CE79FED0B0A89E7DB0F49C034
:105460002EBDBB33DB0F4940DB0FC93FDB0FC9BF8C
:105470000000008000000000DB0F49BFDB0F493F48
:10548000E4CB16C0E4CB164038B510EE105A25F028
:105490000044B4F1A14FF0EE407A0BDBB4F1FF4FC2
:1054A00058DCDFED547A9FED540A002DC8BFB0EEF2
:1054B000670A38BD514B9C425DDCB4F1445F4CDB64
:1054C0004FF0FF3367EEA75A9FED4D1A9FED4D2A1F
:1054D0009FED4D3ADFED4D1ADFED4D2A9FED4D4A20
:1054E000DFED4D3A9FED4D5ADFED4D4A9FED4D6A90
:1054F000DFED4D6A25EEA57A5A1CA7EE012AE7EEEC
:10550000212AA7EE023AE7EE223AA7EE034AE7EE97
:10551000234AA7EE045AE7EE246AA7EE056A26EEB0
:10552000877A66EE256A3ED0404A41499B001A447C
:1055300076EE876A92ED007A97EEA67A0B44002DFC
:1055400093ED000A77EE677A70EE677A28DBB0EEAB
:10555000670A38BD30EE000A38BD9FED367A30EE6E
:10556000077AF7EE006AB4EEE67AF1EE10FAA7DDFC
:10557000B0EE670A38BD00F063F82F4B9C4219DC8F
:10558000A3F5D0039C422ADCF0EE007ABFEE007A4D
:10559000A0EE277A002330EE270AC7EE007A91E7C3
:1055A000B1EE670A38BD76EE876AE7EEE67AB0EECE
:1055B000670A38BD214B9C420BDCF7EE087AB7EE48
:1055C000007AA0EE277A022330EE670AC0EE077A4F
:1055D00078E7BFEE007AC7EE007A032372E7F7EEB2
:1055E000007A30EE677A30EE270A0123C7EE007AA0
:1055F00068E700BFDB0FC93FDB0FC9BFFFFFDF3E1E
:10560000D769853C59DA4B3D356B883D21A215BDE4
:105610006BF16EBD6E2EBA3D95879DBD2549123E3C
:10562000388EE3BDABAAAA3ECDCC4CBE889D000807
:10563000989D0008CAF24971FFFF973FFFFF1B408A
:1056400010EE103A23F0004300EE103A704700BF0E
:1056500070B5960838D09FED257A01F1100400F15D
:105660000803354633F908EC07EE90EAF8EEE77ADE
:10567000013D67EE877A03F1080344ED047A33F9BC
:105680000EEC07EE90EAF8EEE77A04F1100467EE0C
:10569000877A44ED077A33F90CEC07EE90EAF8EEDE
:1056A000E77A67EE877A44ED067A33F90AEC07EE7B
:1056B00090EAF8EEE77A67EE877A44ED057AD1D181
:1056C00001EB061100EBC60012F003020DD09FEDB6
:1056D000077A30F9023B07EE903AF8EEE77A013AA2
:1056E00067EE877AE1EC017AF3D170BD00000038F3
:1056F000F0B497086ED0DFED495A00F1100501F1C2
:1057000008043E46B6EE006AFEEE006A55ED047AE5
:1057100027EEA57A1035B5EEC07AF1EE10FAD4BFB7
:10572000F0EE667AF0EE467A77EE877A0834FDEE90
:10573000E77A17EE903A03F30F0324F8103C55ED87
:10574000077A27EEA57AB5EEC07AF1EE10FAD4BF4B
:10575000F0EE667AF0EE467A77EE877AFDEEE77A3B
:1057600017EE903A03F30F0324F80E3C55ED067A3A
:1057700027EEA57AB5EEC07AF1EE10FAD4BFF0EEBE
:10578000667AF0EE467A77EE877AFDEEE77A17EEE4
:10579000903A03F30F0324F80C3C55ED057A27EEFD
:1057A000A57AB5EEC07AF1EE10FAD4BFF0EE667AC3
:1057B000F0EE467A77EE877A013EFDEEE77A17EE55
:1057C000903A03F30F0324F80A3C9FD100EB071033
:1057D00001EBC70112F003021ED0DFED105AB6EE46
:1057E000006AFEEE006AF0EC017A27EEA57AB5EECB
:1057F000C07AF1EE10FAD4BFF0EE667AF0EE467A97
:1058000077EE877A013AFDEEE77A17EE903A03F3E6
:105810000F0321F8023BE6D1F0BC704700000047BF
:105820002DE9F0414F1E5FEA970800F1040ED0ED1C
:10583000007A58D01430C4460426002410ED046ABF
:1058400050ED036A10ED027A50ED015AB4EEE76AAA
:10585000F1EE10FAC8BFF0EE467AA6F10305F4EEB9
:10586000E67AC8BF2C46F1EE10FA48BFF0EE667A31
:10587000A6F10205F4EEC77A48BF2C46F1EE10FA05
:1058800048BFF0EE477A06F1FF35F4EEE57A48BFFF
:105890002C46F1EE10FA48BF344648BFF0EE657A68
:1058A000BCF1010C06F1040600F11000C6D10EEBAC
:1058B000081E17F0030018D0081ABEEC017AB4EEE7
:1058C000E77AF1EE10FAC8BF044600F10100D8BF34
:1058D000B0EE677A8842F0EE477AEED182ED007A38
:1058E0001C60BDE8F0814446E3E7B0EE677AF5E777
:1058F0002DE9F0412DED088BB0F800E042684FEA49
:105900005E0C01EB8E085FEADE0E07464FEA8C0361
:1059100000F0AF801033CE181032434401F110056F
:1059200008F1100454ED041A13ED044A53ED033A40
:1059300053ED025A13ED015A54ED036A14ED020AB5
:1059400016ED042A56ED032A15ED036A15ED017ACA
:1059500015ED043A54ED017A56ED020A16ED011ADE
:1059600055ED024A73EE21BA36EE26BA37EE27AA73
:1059700072EE049A32EEA39A31EE058A74EE80AA92
:1059800070EEA58A45ED04BA05ED03BA45ED02AA0D
:1059900005ED01AA06ED018A46ED049A06ED039A8B
:1059A00046ED028A76EE666A73EEE23A12ED036A1B
:1059B00052ED042A33EE613A34EE424A26EE868AEC
:1059C00024EE062A63EE221A24EE224A23EE063A39
:1059D00066EEA26A23EE866A63EEA23A36EE046AA7
:1059E00076EEC36A72EE633A71EE882A44ED036A7A
:1059F00044ED042A43ED043A03ED036A77EE677A37
:105A000075EEE06A12ED017A52ED025A35EE416A06
:105A100074EEC04A67EE873A26EE875A24EEA54A0E
:105A200067EEA57A64EE874A66EEA56A26EE077AE7
:105A300026EE256A77EEE47A74EE235A35EE466A4E
:105A400037EE267ABEF1010E44ED025A05F110053B
:105A500044ED017A06F1100603ED026A03ED017AC6
:105A600002F1100204F1100403F110037FF45AAFA5
:105A70007A681FFA8CF408460223214601F040F8A8
:105A8000BDEC088B404621467A680223BDE8F04110
:105A900001F036B82DE9F04F2DED0A8B028891ED1B
:105AA000006A8FB00F46520893000C900391416832
:105AB00097ED017A38461844064609901844D0ED0F
:105AC000006AD6ED003AD6ED012AD0ED017A0A90AF
:105AD00076EE265A044625461C4494ED004A94ED81
