:020000040800F2
:10000000000002206D8C0008B38C0008B58C00083D
:10001000B78C0008B98C0008BB8C000800000000F9
:10002000000000000000000000000000BD8C00087F
:10003000BF8C000800000000C18C0008C38C0008C1
:10004000C78C0008C98C0008CB8C0008CD8C000838
:10005000CF8C0008D18C00086992000881920008BA
:1000600099920008B1920008C9920008DD8C00083E
:10007000DF8C0008E18C0008E38C0008E58C0008A8
:10008000E78C0008E98C0008EB8C0008ED8C000878
:10009000EF8C0008F18C0008F38C0008E192000856
:1000A000F78C0008F98C0008FB8C0008FD8C000818
:1000B000FF8C00088D860008038D0008058D000860
:1000C000078D0008098D00080B8D00080D8D0008B4
:1000D0000F8D0008118D0008138D0008158D000884
:1000E00045930008198D00081B8D00081D8D000820
:1000F0001F8D0008218D0008238D0008258D000824
:10010000278D0008298D0008A98300082D8D00087F
:100110002F8D0008318D0008338D0008358D0008C3
:10012000B1840008398D00083B8D00083D8D000822
:100130003F8D0008418D0008438D0008458D000863
:10014000478D0008498D00084B8D00084D8D000833
:100150004F8D0008518D0008538D0008558D000803
:10016000578D0008598D00085B8D00085D8D0008D3
:100170005F8D0008618D0008638D0008658D0008A3
:10018000678D0008698D000810B5054C237833B9D8
:10019000044B13B10448AFF300800123237010BD5A
:1001A000240100200000000018950408084B10B539
:1001B0001BB108490848AFF300800848036803B939
:1001C00010BD074B002BFBD0BDE81040184700BF07
:1001D00000000000280100201895040820010020DC
:1001E00000000000154B002B08BF134B9D46A3F5E4
:1001F000803A00218B460F461348144A121A10F019
:1002000089FD0F4B002B00D098470E4B002B00D0E0
:1002100098470020002104000D000D48002802D05E
:100220000C48AFF3008010F04FFD2000290008F0CB
:10023000CBF810F035FD00BF0000080000000220E0
:10024000000000000000000024010020F45D0020F8
:10025000000000000000000040F0BF60024B40F4CE
:100260000030D860704700BF00ED00E0C3785BB994
:10027000037818485A09203203F01F03012101FABC
:1002800003F340F822307047F0B4134B4778D96835
:10029000827804780F4EC943C1F30221C1F10405ED
:1002A000EDB20F2307FA05F50B41EDB213402B43D6
:1002B00004F1604202F561421B01DBB282F80033B7
:1002C0000378012203F01F015B098A4046F82320CE
:1002D000F0BC704700E100E000ED00E021F060417B
:1002E00021F07F01014B08439860704700ED00E06A
:1002F000044A136919B923EA0000106170471843D2
:100300001061704700ED00E0044A136804280CBF38
:1003100043F0040323F004031360704710E000E08F
:1003200008B501214FF4807004F0B0F900214FF4BA
:100330008070BDE8084004F0A9B900BFF0B444687B
:100340000A680D790F4B24F0407424F48074224322
:1003500042EA0522426001F1080294CA86684D799A
:100360003C4322433340134343EA450383600A7D01
:10037000C36A013AD2B223F4700343EA0253C36260
:10038000F0BC7047FDF7FFC0002301220275036037
:10039000037143718360C3600361704770B4074D9C
:1003A000066842688468C168054B68683243224326
:1003B0000A43034013436B6070BC70470023014045
:1003C000E030FCFF0023036043608360C36070473C
:1003D000836819B923F001038360704743F0010378
:1003E00083607047436823F4400323F40073194388
:1003F0004160704741628262704700BF436823F0EA
:100400001F03194341607047054A536818B923F424
:1004100000035360704743F400035360704700BF0C
:1004200000230140054A536818B923F48003536040
:10043000704743F480035360704700BF00230140BE
:10044000092970B41DD9A1F10A0606EB4606C56854
:100450000724B440B34025EA04042343062AC360BA
:100460001BD90C2A27D90D3A02EB8202C36A1F243A
:10047000944001FA02F223EA04010A43C26270BC0A
:10048000704701EB410605690724B440B34025EAF3
:1004900004042343062A0361E3D8013A02EB8202F3
:1004A000436B1F24944001FA02F223EA04010A4339
:1004B000426370BC7047073A02EB8202036B1F2451
:1004C000944001FA02F223EA04010A43026370BC79
:1004D000704700BF836843F080438360704700BF6C
:1004E0008068C0F380507047836819B923F4806333
:1004F0008360704743F4806383607047836819B9F1
:1005000023F002038360704743F002038360704767
:100510004368013923F4604343EA41314160704745
:10052000436819B923F400634360704743F40063E0
:1005300043607047C06C80B2704700BF014B1868C1
:10054000704700BF08230140836819B923F4807302
:100550008360704743F4807383607047836819B980
:1005600023F400738360704743F400738360704723
:10057000054A536818B923F400535360704743F495
:1005800000535360704700BF00230140092970B435
:100590001BD801EB410605690724B440B34025EAA6
:1005A000040423430361836B0232C3F30154121B1F
:1005B000D2B202EB82021F24944023EA040301FA20
:1005C00002F21343836370BC7047A1F10A0606EB85
:1005D0004606C5680724B440B34025EA0404234313
:1005E000C360E0E7836B013923F4401343EA015110
:1005F0008163704782B0002301930190019B1944ED
:100600000191019B1A6002B0704700BF836823F418
:100610007023194381607047836823F440131943A2
:1006200081607047836843F480038360704700BF34
:100630008068C0F380507047436819B923F4806321
:100640004360704743F4806343607047436819B95F
:1006500023F480534360704743F4805343607047F2
:1006600082B0002301930190019B2833194401912A
:10067000019B186880B202B0704700BFC9B2012365
:100680008B4041681AB921EA0303436070470B436A
:10069000436070470368194214BF0120002070476F
:1006A000C9430160704700BF4268006810EA11202A
:1006B00007D00123C9B203FA01F1114214BF184651
:1006C000002070476FEA11210160704708B50D4B9B
:1006D00098424FF001010AD04FF0806003F0C8FF4C
:1006E00000214FF08060BDE8084003F0C1BF4FF02B
:1006F000007003F0BDFF00214FF00070BDE808401E
:1007000003F0B6BF00640040036823F002030360F7
:10071000036843F0010303604368DB0707D44FF627
:10072000FF7301E0013B02D04268D207FAD543686B
:1007300013F001035BD030B48B79012B03680CBF3D
:1007400043F0800323F080030360CB79012B03681F
:100750000CBF43F0400323F0400303600B7A012BEE
:1007600003680CBF43F0200323F0200303604B7A9F
:10077000012B03680CBF43F0100323F01003036048
:100780008B7A012B03680CBF43F0080323F00803A6
:100790000360CB7A012B03680CBF43F0040323F002
:1007A00004030360CA788D780B794C7909881206A6
:1007B00042EA857242EA034343EA04534A1E134362
:1007C000C361036823F0010303604368D90707D5B9
:1007D0004FF6FF7301E0013B02D04268D207FAD422
:1007E000406800F0010080F0010030BC70471846FE
:1007F000704700BFF0B43B4B827AD3F8001241F04F
:100800000101C3F80012012101FA02F2D3F81C120F
:10081000D4432140C3F81C12017BB1B9D3F80C5268
:1008200031492540C3F80C52857AC7884688483537
:1008300046EA074643F83560857A86880388ED00E6
:10084000294443EA06434B60017B012931D0C37A36
:1008500024490BBBD1F804322340C1F80432038988
:1008600033B92049D1F814321C40C1F8144203892D
:10087000012B17D0437B012B05D11A49D1F81C322B
:100880001A43C1F81C22174AD2F8003223F00103A0
:10089000C2F80032F0BC7047D1F804321343C1F8FB
:1008A0000432DCE70F49D1F814321343C1F8143293
:1008B000E0E70C490C4BD1F80C521543C1F80C522F
:1008C000857A07884688483546EA074641F8356004
:1008D000857A8688C188ED002B4441EA064159603B
:1008E000B5E700BF0064004040660040002310B43C
:1008F0000221032401220471417102808371C371BA
:10090000037243728372C3728370C3705DF8044BC9
:10091000704700BF0D4BD3F8002242F00102C3F82C
:100920000022D3F8002222F47C5222F00E02C3F8F7
:100930000022D3F8002242EA0020C3F80002D3F8D4
:10094000002222F00102C3F8002270470064004038
:10095000036819B923F480330360704743F480338C
:10096000036070470368A9B923F080030360D0F8DF
:10097000843123F48073C0F88431D0F8943123F4A7
:100980008073C0F89431D0F8A43123F48073C0F898
:10099000A431704743F080030360D0F8843143F4FE
:1009A0008073C0F88431D0F8943143F48073C0F878
:1009B0009431D0F8A43143F48073C0F8A431704767
:1009C000F0B483680446580105D4A3681A0143D5DE
:1009D0000122104601E0002210461201A318D3F8AC
:1009E000805105F00105C3F880510D7A55B34E686A
:1009F000D3F8807145EAC6054E7A3D433543C3F8C6
:100A000080518D7A05F00F058D72D3F8845125F051
:100A10000F05C3F884518E7AD3F884513543C3F857
:100A200084512244D1F80B40C2F88841D1F80F100C
:100A3000C2F88C11D3F8802142F00102C3F8802162
:100A4000F0BC70470F684D7AD3F8806145EA47558E
:100A50003543C3F88051D4E7A368DB0002D50222F6
:100A60001046BAE70420F0BC704700BF01291AD035
:100A700015D302290FD182680D4B13400D4A9342C2
:100A800006D007D90C4A934202D0094A934204D1B6
:100A9000012070470BB90220704700207047826820
:100AA000044B1340EAE78268034B1340E6E700BFBC
:100AB00000000310030000040003000801290DD00A
:100AC00007D3022904D1836843F40003836070478D
:100AD0007047836843F0800383607047836843F402
:100AE00000438360704700BF10B400EB0114D4F8DA
:100AF000B03103F00403DBB21372CBBBD4F8B031D6
:100B00005B0D1360D4F8B03103F002035372D4F8D4
:100B1000B43103F00F039372D4F8B44100EB011326
:100B2000240AD474D3F8B841D472D3F8B841240A53
:100B30001473D3F8B841240C5473D3F8B841240E7D
:100B40009473D3F8BC41D473D3F8BC41240A147411
:100B5000D3F8BC41240C5474D3F8BC311B0E9374ED
:100B600059B103695DF8044B43F0200303617047FA
:100B7000D4F8B031DB085360C4E7C3685DF8044BB8
:100B800043F02003C360704721B1036943F02003A1
:100B900003617047C36843F02003C360704700BF20
:100BA00031B1012906BF006900F003000020704741
:100BB000C06800F003007047E9B9036823F003033D
:100BC00043F001030360436803F00303012B09D0E2
:100BD0004FF6FF7201E0013A04D0436803F00303CB
:100BE000012BF8D1406800F00300A0F10100B0FA39
:100BF00080F040097047012903D0022917D0002056
:100C00007047036823F0030303604368990707D024
:100C10004FF6FF7301E0013B02D042689207FAD120
:100C2000436813F0030F0CBF0120002070470368D6
:100C300023F0030343F002030360436803F003035C
:100C4000022B09D04FF6FF7201E0013A04D043684D
:100C500003F00303022BF8D1406800F00300A0F179
:100C60000200B0FA80F04009704700BF036823F02B
:100C7000030343F002030360406800F00300A0F1A7
:100C80000200B0FA80F04009704700BF036823F00B
:100C9000020303604368990707D54FF6FF7301E02D
:100CA000013B02D042689207FAD4406880F002000B
:100CB000C0F34000704700BF806900F070007047CB
:100CC0008069000E704700BF8069C0F3074070471D
:100CD00043691AB923EA010141617047194341612F
:100CE000704700BF11F4700F07D08369C3F313037B
:100CF0000B4214BF012000207047CB0107D5436889
:100D0000C3F313030B4214BF0120002070470A01F4
:100D100007D58368C3F313030B4214BF01200020DF
:100D200070478B014CBFC3680369C3F313030B42C5
:100D300014BF0120002070470A4B99420CD08A0151
:100D4000C1F3130306D44A0109D40A014CBF8360DE
:100D500043607047C360704700238361704703613D
:100D6000704700BF7000F03043690B401ED040292F
:100D700067D00ED9B1F5006F5CD019D8B1F5007FFE
:100D800050D0B1F5806F37D0B1F5807F27D00020EB
:100D9000704704294AD018D910293DD0202937D0CE
:100DA0000829F4D1C068C0F3001070471846704796
:100DB000B1F5803F24D0B1F5003F25D0B1F5004F0B
:100DC000E5D14068C0F38000704701290BD00229AB
:100DD000DDD1C06810F0030018BF012070478069A2
:100DE00000F001007047806800F0013020F0807052
:100DF000003018BF012070478069C0F38000704741
:100E00004068C0F3C00070474068C0F300107047EE
:100E10000069C0F3C0007047006910F0030018BFFC
:100E2000012070478069C0F340007047C068C0F37C
:100E3000C0007047836913F0700F14BF01200020B9
:100E400070470069C0F30010704700BFB1F5807FA4
:100E50001ED00DD9B1F5006F24D013D9B1F5803F64
:100E600025D0B1F5003F2ED0B1F5004F1AD0704714
:100E700008291FD00FD9202922D0402927D110239B
:100E800003617047B1F5007F02D0B1F5806F1DD1CD
:100E900004234360704701290FD0042918D1082387
:100EA000C3607047002204238261436070470823B7
:100EB000436070471023C3607047064B83607047E0
:100EC00008230361704710234360704770477047E1
:100ED000704700BF01010100014B01229A60704779
:100EE00000300240014B1860186870470030024023
:100EF00039B1054A00EB810150F8043B1360884288
:100F0000FAD1014B1868704700300240014B186855
:100F1000704700BF00300240014B1871704700BF9E
:100F200000300240014B1879704700BF003002408A
:100F300008B50121102003F07FFB00211020BDE83F
:100F4000084003F079BB00BF144B1A6822F0380246
:100F50001A601A6841880A431A601A6822F0C002AF
:100F60001A601A6881880A431A60428822F01802BF
:100F700092B2202A07D11A6822F440721A601A68C5
:100F8000C1880A431A60054B1A6822F004021A60ED
:100F900001881A680A431A60704700BF00000650B3
:100FA0000023038043808380C3807047084B02681E
:100FB0001A6242685A6282689A62C268DA62026998
:100FC0001A6342695A6382699A63C269DA63704735
:100FD000000006500023036043608360C360036128
:100FE00043618361C3617047044B02681A644268BD
:100FF0005A6482689A64C268DA64704700000650D6
:101000000023036043608360C3607047024A136833
:1010100043F480431360704700000650054A13688C
:1010200018B923F400431360704743F4004313607E
:10103000704700BF00000650014B9860704700BF2A
:1010400000000650014BD868704700BF00000650F2
:1010500070B483B0254C00230193236923F001036E
:101060002361236813F0080F14BF112515254FF6CF
:10107000FF7601E0012A08D06268019B01330193E9
:10108000019BB34202EA0502F4D1184B5A6815409D
:10109000012D03D0002003B070BC70471A6922F004
:1010A00002021A611A6822F400421A601A6802F4F5
:1010B0007F7202601A6C42605A6C82609A6CC260E5
:1010C000DB6C03610B6843614B6883618B68C361B0
:1010D000CB6803620B6943624B6983628B69C362AD
:1010E000CB690363284603B070BC7047000006500C
:1010F0000F4B02681A6042691A6282695A62C269B9
:101100009A62026ADA62426A1A63826A5A63C26A3D
:101110009A63026BDA6342681A6482685A64C2682E
:101120009A640269DA641A6842F400421A607047ED
:1011300000000650054A136929B923EA000000F0AF
:10114000FF0010617047184310617047000006509F
:10115000054A536929B923EA000000F0FF005061F5
:10116000704718435061704700000650034BDB691D
:10117000184214BF01200020704700BF0000065035
:10118000044B82064CBF9B695B68184214BF012068
:1011900000207047000006502DE9F0438DB0164640
:1011A0000546002704A8894698460197149CFFF736
:1011B00011FFC02E00F0CF80B6F5807F00F0A68032
:1011C000802E00F092809DBB02AEFFF71FFF04222D
:1011D00038233046ADF80820ADF80A30ADF80C5091
:1011E000FFF7B2FE04A8FFF7E1FE0120FFF716FFAC
:1011F00002E0002800F086801020FFF7C1FF019B6D
:1012000001330193019BB3F5803FF2D1002879D0DF
:10121000202280233046ADF80A20ADF80C30FFF7CD
:1012200093FEFFF7F3FE0120FFF7F8FE00243CE0F9
:1012300004A80CAEFFF7BAFE002326F8283D30467E
:1012400020228023ADF80A20ADF80C30FFF77CFE99
:10125000FFF7DCFE0120FFF7E1FE002C43D0159BD9
:10126000002608F11008374603F1100558F8100C55
:10127000FFF7E2FE58F80C0CFFF7DEFE58F8080CFA
:10128000FFF7DAFE58F8040CFFF7D6FE019700E0EE
:1012900090B11020FFF774FF019B01330193019B74
:1012A000B3F5803FF4D138B100240020FFF7B6FE3B
:1012B00020460DB0BDE8F083FFF7C4FE45F8100CE2
:1012C000FFF7C0FE45F80C0CFFF7BCFE45F8080C14
:1012D000FFF7B8FE1036B44245F8040C08F11008C8
:1012E00005F11005C2D80124DFE799E80F0000BA24
:1012F00009BA12BA1BBAADF80E70089009910A9299
:101300000B9360E70423ADF8083098E7D9F808603C
:10131000D9F80010D9F81020D9F80470D9F8143091
:1013200008BA31BA0490D9F80C600691D9F81800BF
:10133000D9F81C1012BA3FBA36BA1BBA00BA09BAA9
:1013400008924FF400720597079609930A900B9143
:10135000ADF80E2037E709F108000FC8D9F8007082
:10136000D9F8046000BA3FBA36BA09BA12BA1BBA41
:1013700008904FF480700697079609910A920B9394
:10138000ADF80E001FE700BF2DE9F04790B01D46F5
:101390000446002608A88A4691460196DDF8648036
:1013A000FFF718FEC02D00F0E280B5F5807F00F059
:1013B000B980802D00F0A5809AE80F0000BA09BA24
:1013C00012BA1BBA0490059106920793BCBB02ADFA
:1013D000FFF71CFE042238232846ADF80820ADF89C
:1013E0000A30ADF80C40FFF7AFFD08A8FFF7DEFDAF
:1013F0000120FFF713FE02E0002800F08F8010208C
:10140000FFF7BEFE019B01330193019BB3F5803FC3
:10141000F2D1002800F08280282280232846ADF8EF
:101420000A20ADF80C30FFF78FFD04A8FFF7DCFDB4
:10143000FFF7ECFD0120FFF7F1FD002441E008A8D3
:1014400010ADFFF7B3FD002325F8383D2822802397
:101450002846ADF80A20ADF80C30FFF775FD04A85A
:10146000FFF7C2FDFFF7D2FD0120FFF7D7FDB8F16E
:10147000000F44D0189B03F110041A9B00273E462E
:1014800003F1100554F8100CFFF7D6FD54F80C0CBE
:10149000FFF7D2FD54F8080CFFF7CEFD54F8040C0A
:1014A000FFF7CAFD019600E090B11020FFF768FE3B
:1014B000019B01330193019BB3F5803FF4D138B117
:1014C00000240020FFF7AAFD204610B0BDE8F087F9
:1014D000FFF7B8FD45F8100CFFF7B4FD45F80C0C0C
:1014E000FFF7B0FD45F8080CFFF7ACFD1037B84525
:1014F00045F8040C04F1100405F11005C2D80124CC
:10150000DFE799E80F0000BA09BA12BA1BBAADF8C2
:101510000E600C900D910E920F934DE70423ADF8E1
:10152000083093E7D9F80020D9F81000D9F80470F2
:10153000D9F80860D9F80C50D9F81430D9F8181037
:1015400012BA0892D9F81C2000BA3FBA36BA2DBA9E
:101550001BBA09BA12BA0C904FF4007009970A9698
:101560000B950D930E910F92ADF80E0024E709F143
:1015700008000FC8D9F80060D9F8045000BA36BA8C
:101580002DBA09BA12BA1BBA0C904FF480700A96A1
:101590000B950D910E920F93ADF80E000CE700BF66
:1015A0002DE9F04391B01F460646002408A888465E
:1015B00091460194199DFFF70DFDC02F00F0AD80FD
:1015C000B7F5807F00F08480802F70D008F104018F
:1015D0000EC9D8F8007009BA12BA1BBA08A83FBAE7
:1015E0000591069207930497FFF7E0FC002E0CBFCD
:1015F000042100213022802302A8ADF80810ADF8A4
:101600000A20ADF80C30FFF79FFC04A8FFF7ECFCB4
:10161000FFF7FCFC0120FFF701FD002D45D0189BD2
:1016200003F110041A9B002603F11007B04654F88A
:10163000100CFFF701FD54F80C0CFFF7FDFC54F8FB
:10164000080CFFF7F9FC54F8040CFFF7F5FCCDF893
:10165000048000E090B11020FFF792FD019B013360
:101660000193019BB3F5803FF4D138B100240020F1
:10167000FFF7D4FC204611B0BDE8F083FFF7E2FC91
:1016800047F8100CFFF7DEFC47F80C0CFFF7DAFC0C
:1016900047F8080CFFF7D6FC1036B54247F8040CA3
:1016A00004F1100407F11007C1D80124DFE799E81D
:1016B0000300D9F80820D9F80C30ADF80E4000BA74
:1016C00009BA12BA1BBA0C900D910E920F937DE7D6
:1016D000D9F80030D9F80C00D9F80870D9F81040C2
:1016E00019BAD9F80430089102BA1BBAD9F8141003
:1016F00009930B92D9F81C30D9F8182009BA3FBACF
:1017000020BA12BA1BBA0D914FF400710A970C90CF
:101710000E920F93ADF80E1058E709F108000FC8AC
:1017200099E8900009BA24BA3FBA00BA12BA1BBAB3
:101730000D914FF480710A940B970C900E920F93B9
:10174000ADF80E1042E700BF2DE9F0438DB007461B
:10175000002604A88946984614460196149DFFF772
:1017600039FC012F0CBF314604211022802302A82E
:10177000ADF80A20ADF80810ADF80C30FFF7E4FB27
:10178000D9F80070D9F8043004A839BA1BBA069108
:101790000793FFF70BFCFFF739FC0120FFF73EFC36
:1017A000B8F1000F2FD008340835374654F8080C2C
:1017B000FFF742FC54F8040CFFF73EFC019700E0F1
:1017C00090B11020FFF7DCFC019B01330193019BDA
:1017D000B3F5803FF4D138B100240020FFF71EFCA0
:1017E00020460DB0BDE8F083FFF72CFC45F8080C4F
:1017F000FFF728FC0836B04545F8040C04F108044E
:1018000005F10805D2D80124E7E700BF2DE9F0472C
:1018100090B08246002608A8894617461C46DDF887
:1018200060800196199DFFF7D5FBBAF1010F0CBF3F
:10183000314604211822802302A8ADF80A20ADF811
:101840000810ADF80C30FFF77FFBD9F80030D9F85D
:1018500004101BBA09BA08A80A930B91FFF7A6FB5C
:1018600097E8060004A809BA12BA04910592FFF796
:10187000BBFBFFF7CBFB0120FFF7D0FBB8F1000F5C
:101880002FD008340835374654F8080CFFF7D4FB3E
:1018900054F8040CFFF7D0FB019700E090B1102042
:1018A000FFF76EFC019B01330193019BB3F5803F71
:1018B000F4D138B100240020FFF7B0FB204610B06F
:1018C000BDE8F087FFF7BEFB45F8080CFFF7BAFB51
:1018D0000836B04545F8040C04F1080405F1080584
:1018E000D2D80124E7E700BF2DE9F0438DB081464F
:1018F000002604A80F46144698460196FFF76AFB97
:10190000B9F1010F0CBF32460422802302A8ADF8C2
:101910000820ADF80C30ADF80A60FFF715FBD7F8DA
:1019200000C07D68FA6839697B69D7F8089004A817
:101930009CFA8CFC12BA09BA1BBA2DBA99FA89F72B
:10194000CDF818C009920A910B9307950897FFF7F5
:101950002DFBFFF75BFB0120FFF760FBB8F1000FE9
:1019600031D0149B083403F10805374654F8080CAD
:10197000FFF762FB54F8040CFFF75EFB019700E0F1
:1019800090B11020FFF7FCFB019B01330193019BF9
:10199000B3F5803FF4D138B100240020FFF73EFBBF
:1019A00020460DB0BDE8F083FFF74CFB45F8080C6E
:1019B000FFF748FB0836B04545F8040C04F108046D
:1019C00005F10805D2D80124E7E700BF2DE9F0476B
:1019D00090B08246002608A80F4691461C46DDF8C6
:1019E00060800196FFF7F6FABAF1010F4FF0080296
:1019F0000CBF3146042180230DEB0200ADF8081026
:101A0000ADF80A20ADF80C30FFF79EFAD7F800C009
:101A10007D68FA683B697969D7F808A09CFA8CFC64
:101A20001BBA12BA09BA08A82DBA9AFA8AF7CDF8E1
:101A300028C00E930D920F910B950C97FFF7B6FAF5
:101A400099E8060004A809BA12BA04910592FFF7B2
:101A5000CBFAFFF7DBFA0120FFF7E0FAB8F1000F4D
:101A600031D0199B083403F10805374654F8080CA7
:101A7000FFF7E2FA54F8040CFFF7DEFA019700E0F2
:101A800090B11020FFF77CFB019B01330193019B78
:101A9000B3F5803FF4D138B100240020FFF7BEFA3F
:101AA000204610B0BDE8F087FFF7CCFA45F8080CE7
:101AB000FFF7C8FA0836B04545F8040C04F10804ED
:101AC00005F10805D2D80124E7E700BF08B50121D8
:101AD0004FF0005002F0CCFD00214FF00050BDE867
:101AE000084002F0C5BD00BFF0B40F684E68094D54
:101AF0008C68CA682B6847EA06010C4340F6FE7101
:101B00002243814023EA010302FA00F003432B60E1
:101B1000F0BC7047007400400023036043608360A2
:101B2000C360704741B9084901220B6802FA00F00E
:101B300023EA000008607047034901220B6802FA9B
:101B400000F01843086070470074004049B9094923
:101B500000094B68012202FA00F023EA0000486005
:101B60007047044900094B68012202FA00F018434B
:101B70004860704700740040054A536818B923F064
:101B800003035360704743F003035360704700BF83
:101B90000074004032B9064A1368814023EA01010B
:101BA00011607047024A1368814019431160704701
:101BB0000074004082B00022054B01920193019B0A
:101BC000083318440190019B196002B0704700BFB0
:101BD0000074004082B00022054B01920193019BEA
:101BE000143318440190019B196002B0704700BF84
:101BF000007400400828044B0CBF42EA012242EA6C
:101C00000142C250704700BF2074004082B00022E1
:101C1000064B01920193019B2C3303EB9000019042
:101C2000019B186880B202B0704700BF007400408A
:101C300049B909494FF480520B6802FA00F023EACF
:101C400000000860704704494FF480520B6802FAA4
:101C500000F01843086070470074004032B9064A2B
:101C60001368814023EA010111607047024A13683A
:101C7000814019431160704700740040034B5B6B57
:101C80008140194214BF01200020704700740040B9
:101C9000014B81405963704700740040054B1A683E
:101CA0005B6B814011EA030003D00A4214BF01209C
:101CB0000020704700740040014B81405963704719
:101CC00000740040014B1868000C7047002004E0CD
:101CD000024B1868C0F30B00704700BF002004E0FF
:101CE00029B9054A536823EA000050607047024B47
:101CF0005A68104358607047002004E029B9054A2B
:101D0000936823EA000090607047024B9A68104382
:101D100098607047002004E029B9054AD36823EA97
:101D20000000D0607047024BDA681043D8607047FB
:101D3000002004E0054B00221F211A60DA6059617F
:101D40009A61DA611A625A62704700BF000005505A
:101D5000F0B50F4C236823F4804323F00103236084
:101D6000B0F800E042888788C68803894589818960
:101D70004EEA02023A4332431A4323682A430A4393
:101D800023F47F6392B223F0020313432360F0BD78
:101D9000000005500023038043808380C3800381BB
:101DA00043818381704700BF01884388044A43EA26
:101DB000014313628188C38843EA01435362704739
:101DC00000000550054A136818B923F00403136096
:101DD000704743F004031360704700BF00000550D4
:101DE000014B02689A61704700000550054A13686C
:101DF00018B923F008031360704743F00803136019
:101E0000704700BF00000550054A136818B923F455
:101E100080431360704743F480431360704700BFF2
:101E200000000550054A136818B923F00103136038
:101E3000704743F001031360704700BF0000055076
:101E4000014B986A704700BF00000550054A29B948
:101E5000D368C04380B21840D0607047D36818433D
:101E6000D060704700000550030B012B09D0022BF6
:101E7000054B0CBF5B681B69184214BF0120002092
:101E80007047014B9B68F7E700000550014B586114
:101E9000704700BF00000550034B1B69184214BF78
:101EA00001200020704700BF00000550014B586121
:101EB000704700BF0000055002683749002310B486
:101EC00022F00102212488420260036043608360A3
:101ED000C360036144614DD0304B984235D0304BE4
:101EE000984239D02F4B98423DD02F4B984247D043
:101EF0002E4B984248D02E4B98421DD02D4B9842E5
:101F00001ED02D4B984243D02C4B98421DD02C4BC9
:101F1000984221D02B4B984225D02B4B98422FD062
:101F20002A4B984230D02A4B984205D0294B9842F0
:101F300006D05DF8044B7047274A43F8942CF8E725
:101F40004FF03D5243F8AC2CF3E74FF4746243F882
:101F5000202C5DF8044B70474FF4741243F8382C72
:101F60005DF8044B70474FF0746243F8502C5DF8F5
:101F7000044B7047194B3D229A605DF8044B704743
:101F8000174A43F8642CD4E7164A43F87C2CD0E770
:101F90003D2243F8082CCCE7106002402860024044
:101FA0004060024058600240706002408860024019
:101FB000A0600240B8600240106402402864024001
:101FC00040640240586402407064024088640240E9
:101FD000A0640240B864024000003D20006002405E
:101FE0003D000020400F0020F0B401F118028CCA1F
:101FF0000E68CD684C693543254315434E6A4C6BDA
:102000008A6B1D433D438B6A35431D4306680B4B6A
:102010002C432243334013430360CC6A42690B6B69
:1020200022F007022343134343610B6943604B686B
:1020300083608B68C360F0BC704700BF3F801CF0BA
:102040000023036043608360C36003614361836175
:10205000C361036243628362C36203634363836356
:10206000704700BF036819B923F00103036070478C
:1020700043F0010303607047036819B923F4004378
:102080000360704743F4004303607047036819B965
:1020900023F020030360704743F020030360704780
:1020A00041607047406880B2704700BF036822B942
:1020B00023F4002303600161704743F400230360AD
:1020C00001617047036819B923F4802303607047E6
:1020D00043F48023036070470AB9C160704701610F
:1020E000704700BF0068C0F3C0407047006800F050
:1020F00001007047406900F03800704710B40B4B86
:102100000B4C0C4AA04294BF184610468B004CBFA3
:10211000436803685DF8044B21F0F02121F082113F
:10212000194214BF01200020704700BF0060024028
:102130000F6402400064024010B4094B094C0A4A83
:10214000A04294BF1846104611F0005F21F0F02124
:1021500021F0821114BFC16081605DF8044B7047AB
:10216000006002400F640240006402400B060CD580
:102170004369AAB143F08003802943610FD003680B
:1021800001F01E01194301607047802907D0002A21
:10219000F5D1036801F01E0123EA010101607047D7
:1021A00023F0800380294361F3D1704770B4104A53
:1021B000104E114C21F0F02323F0C315B04298BF0C
:1021C00014468DB1006800F01E0000EAD12289009B
:1021D0004CBF6068206823F08213184002D0101CA6
:1021E00018BF012070BC7047406900F08002EEE724
:1021F000006002400F6402400064024010B4094BCA
:10220000094C0A4AA04294BF1846104611F0005FDC
:1022100021F0F02121F0821114BFC16081605DF8CE
:10222000044B7047006002400F64024000640240AB
:10223000044B054900221A605A609A60DA605961BD
:10224000704700BF003C0140FFFF7F008379002BF7
:102250002CD010B4204B01681A6822EA01021A60DF
:102260005A68016822EA01025A600279016802F1A3
:10227000804202F59E321468214311609A68016819
:1022800022EA01029A60DA68016822EA0102DA6051
:102290004279102A15D002F1804303F59E3302687B
:1022A00019680A431A605DF8044B704703790168A6
:1022B00003F1804303F59E331A6822EA01021A6093
:1022C0007047996802680A439A600268D9680A43AD
:1022D000DA605DF8044B7047003C014000230C229B
:1022E0004271036003718371704700BF024A136932
:1022F00018431061704700BF003C0140034B5B690D
:10230000034214BF01200020704700BF003C014081
:10231000014B5861704700BF003C0140054B1A68F3
:102320005B69034004D0024214BF012000207047C3
:1023300018467047003C0140014B5861704700BF90
:10234000003C0140014BC0B218707047003C024095
:10235000054A136818B923F480731360704743F477
:1023600080731360704700BF003C0240054A136849
:1023700018B923F400731360704743F400731360BB
:10238000704700BF003C0240054A136818B923F4A7
:1023900080631360704743F480631360704700BF2D
:1023A000003C0240024A136843F400631360704724
:1023B000003C0240024A136843F4805313607047A4
:1023C000003C0240044B1A69002A03DA0349044A1C
:1023D00059605A60704700BF003C024023016745C6
:1023E000AB89EFCD024A136943F000431361704794
:1023F000003C024010B483B039B101294BD002290E
:102400000CBF4FF400714FF4407108225A4B8DF805
:102410000620DA68D4033CD4DA68D20626D5052330
:102420008DF806309DF80630012B15D1524A09E08F
:10243000D368DB0620D505238DF806309DF80630DD
:10244000012B09D1D368DC03F2D501238DF80630C6
:102450009DF80630012BF5D09DF80630DBB2082B35
:1024600023D0184603B05DF8044B7047DA6812F0C9
:10247000EF0F13D00623D3E7D36813F0EF0F01D08B
:102480000623D9E7D36813F0020F14BF07230823EC
:10249000D2E70123C4E74FF48071B6E7DB6813F09D
:1024A000020F14BF07230823BAE7334A146924F440
:1024B00040741461146921431161116921F0F8011C
:1024C0001161116941F0020108431061116941F481
:1024D000803111618DF80730D368DC033DD4D368B7
:1024E000D8063CD505238DF807309DF80730012B21
:1024F00015D1214A09E0D368DB0621D505238DF8E3
:1025000007309DF80730012B09D1D368D903F2D5E4
:1025100001238DF807309DF80730012BF5D0164ABE
:102520009DF80730116921F0020111611169DBB2D8
:1025300021F0F8011846116103B05DF8044B7047B3
:10254000D36813F0EF0F01D00623D8E7D36813F058
:10255000020F14BF07230823D1E70123C3E7D36881
:1025600013F0EF0F01D00623BDE7D36813F0020F7D
:1025700014BF07230823B6E7003C024082B00822BC
:10258000584B8DF80620DA68D10343D4DA68D206B6
:102590002DD505238DF806309DF80630012B15D179
:1025A000504A09E0D368D90627D505238DF80630AF
:1025B0009DF80630012B09D1D368DB03F2D5012346
:1025C0008DF806309DF80630012BF5D09DF80630C9
:1025D000DBB238B101286CD002280CBF4FF4007078
:1025E0004FF44070082B1ED0184602B07047DA68CE
:1025F00012F0EF0F10D00623CCE7D36813F0EF0FE3
:1026000001D00623D2E7D36813F0020F14BF0723CB
:102610000823CBE70123BDE7DB6813F0020F14BFEB
:1026200007230823B6E72F4A116921F4407111618D
:10263000116908431061116941F0040111611169C8
:1026400041F4803111618DF80730D368DB033AD44F
:10265000D368D80639D505238DF807309DF80730A3
:10266000012B15D11F4A09E0D368DB061BD50523D2
:102670008DF807309DF80730012B09D1D368D903B5
:10268000F2D501238DF807309DF80730012BF5D0E6
:1026900014499DF807300A69DBB222F0040218469B
:1026A0000A6102B07047D36813F0EF0F04D006231D
:1026B000DEE74FF4807095E7D36813F0020F14BF84
:1026C00007230823D4E70123C6E7D36813F0EF0FED
:1026D00001D00623C0E7D36813F0020F14BF07230D
:1026E0000823B9E7003C024070B483B00824544981
:1026F0008DF80640CE68F60314461D463BD4CB68E1
:10270000DA0625D505238DF806309DF80630012B15
:1027100015D14B4909E0CB68DE061FD505238DF89E
:1027200006309DF80630012B09D1CB68DB03F2D5CA
:1027300001238DF806309DF80630012BF5D09DF869
:102740000630DBB2082B1FD0184603B070BC7047B0
:10275000CB6813F0EF0F10D00623D4E7CB6813F04B
:10276000EF0F01D00623DAE7CB6813F0020F14BF96
:1027700007230823D3E70123C5E7CB6813F0020F33
:1027800014BF07230823BEE72D4A116921F44071C5
:102790001161116941F440711161116941F0010148
:1027A0001161C0E900458DF80730D368DC0338D4E7
:1027B000D368D80637D505238DF807309DF8073044
:1027C000012B15D11E4A09E0D368DB061CD5052371
:1027D0008DF807309DF80730012B09D1D368D90354
:1027E000F2D501238DF807309DF80730012BF5D085
:1027F00013499DF807300A69DBB222F0010218463E
:102800000A6103B070BC7047D36813F0EF0F01D0BA
:102810000623DDE7D36813F0020F14BF0723082354
:10282000D6E70123C8E7D36813F0EF0F01D00623E2
:10283000C2E7D36813F0020F14BF07230823BBE7D6
:10284000003C024010B483B00822544B8DF806209F
:10285000DA68D4033CD4DA68D20626D505238DF88D
:1028600006309DF80630012B15D14C4A09E0D3689B
:10287000DB0620D505238DF806309DF80630012BA8
:1028800009D1D368DC03F2D501238DF806309DF819
:102890000630012BF5D09DF80630DBB2082B20D096
:1028A000184603B05DF8044B7047DA6812F0EF0F7A
:1028B00010D00623D3E7D36813F0EF0F01D006231F
:1028C000D9E7D36813F0020F14BF07230823D2E718
:1028D0000123C4E7DB6813F0020F14BF07230823AA
:1028E000BDE72E4A146924F440741461146944F459
:1028F00000741461146944F00104146101608DF8DE
:102900000730D368DC0339D4D368D80638D505231B
:102910008DF807309DF80730012B15D11F4A09E0CB
:10292000D368DB061DD505238DF807309DF80730E9
:10293000012B09D1D368D903F2D501238DF80730D3
:102940009DF80730012BF5D014499DF807300A692E
:10295000DBB222F0010218460A6103B05DF8044BB5
:102960007047D36813F0EF0F01D00623DCE7D3687C
:1029700013F0020F14BF07230823D5E70123C7E78D
:10298000D36813F0EF0F01D00623C1E7D36813F02B
:10299000020F14BF07230823BAE700BF003C024020
:1029A00010B483B00822544B8DF80620DA68D403A3
:1029B0003CD4DA68D20626D505238DF806309DF87A
:1029C0000630012B15D14C4A09E0D368DB0620D52F
:1029D00005238DF806309DF80630012B09D1D36808
:1029E000DC03F2D501238DF806309DF80630012B6B
:1029F000F5D09DF80630DBB2082B20D0184603B086
:102A00005DF8044B7047DA6812F0EF0F10D0062320
:102A1000D3E7D36813F0EF0F01D00623D9E7D368CB
:102A200013F0020F14BF07230823D2E70123C4E7E2
:102A3000DB6813F0020F14BF07230823BDE72E4AFB
:102A4000146924F440741461146944F480741461AA
:102A5000146944F00104146101808DF80730D368D3
:102A6000DC0339D4D368D80638D505238DF8073070
:102A70009DF80730012B15D11F4A09E0D368DB060A
:102A80001DD505238DF807309DF80730012B09D19E
:102A9000D368D903F2D501238DF807309DF80730AC
:102AA000012BF5D014499DF807300A69DBB222F0FA
:102AB000010218460A6103B05DF8044B7047D36801
:102AC00013F0EF0F01D00623DCE7D36813F0020FF9
:102AD00014BF07230823D5E70123C7E7D36813F002
:102AE000EF0F01D00623C1E7D36813F0020F14BF24
:102AF00007230823BAE700BF003C024010B483B0AC
:102B00000822534B8DF80620DA68D4033CD4DA68E7
:102B1000D20626D505238DF806309DF80630012B08
:102B200015D14B4A09E0D368DB0620D505238DF883
:102B300006309DF80630012B09D1D368DC03F2D5AD
:102B400001238DF806309DF80630012BF5D09DF855
:102B50000630DBB2082B20D0184603B05DF8044BDA
:102B60007047DA6812F0EF0F10D00623D3E7D3686E
:102B700013F0EF0F01D00623D9E7D36813F0020F4B
:102B800014BF07230823D2E70123C4E7DB6813F04F
:102B9000020F14BF07230823BDE72D4A146924F44C
:102BA0004074146114691461146944F001041461DF
:102BB00001708DF80730D368DC0339D4D368D806A8
:102BC00038D505238DF807309DF80730012B15D136
:102BD0001F4A09E0D368DB061DD505238DF80730B1
:102BE0009DF80730012B09D1D368D903F2D5012311
:102BF0008DF807309DF80730012BF5D014499DF86A
:102C000007300A69DBB222F0010218460A6103B0FC
:102C10005DF8044B7047D36813F0EF0F01D0062323
:102C2000DCE7D36813F0020F14BF07230823D5E7AE
:102C30000123C7E7D36813F0EF0F01D00623C1E7E4
:102C4000D36813F0020F14BF07230823BAE700BFAD
:102C5000003C0240044B5A69D20703D50349044A99
:102C600099609A60704700BF003C02403B2A1908F7
:102C70007F6E5D4C024A536943F001035361704714
:102C8000003C024082B008222A4B8DF80720DA6807
:102C9000D20338D4DA68D20622D505238DF807305E
:102CA0009DF80730012B15D1224A09E0D368DB06D5
:102CB0001CD505238DF807309DF80730012B09D16D
:102CC000D368DB03F2D501238DF807309DF8073078
:102CD000012BF5D09DF80730082B16D002B07047B5
:102CE000DA6812F0EF0F18D00623D7E7D36813F095
:102CF000EF0F01D00623DDE7D36813F0020F14BFF6
:102D000007230823D6E70123C8E70B4A138859B9DC
:102D1000184380B2108002B07047DB6813F0020FD6
:102D200014BF07230823B9E79BB223EA00001080F1
:102D300002B07047003C0240163C024082B00822BC
:102D4000244B8DF80720DA68D1033AD4DA68D2062A
:102D500024D505238DF807309DF80730012B15D1B8
:102D60001C4A09E0D368DB061ED505238DF8073021
:102D70009DF80730012B09D1D368D903F2D501237F
:102D80008DF807309DF80730012BF5D09DF80730FE
:102D9000082B01D1104B187002B07047DA6812F09E
:102DA000EF0F10D00623D5E7D36813F0EF0F01D053
:102DB0000623DBE7D36813F0020F14BF07230823B1
:102DC000D4E70123C6E7DB6813F0020F14BF072323
:102DD0000823BFE7003C0240153C024010B483B01A
:102DE0000824294B8DF80740DC68E40342D4DC68F2
:102DF000E4062CD505238DF807309DF80730012B0C
:102E000015D1214C09E0E368DB0626D505238DF8B2
:102E100007309DF80730012B09D1E368DB03F2D5B9
:102E200001238DF807309DF80730012BF5D09DF870
:102E30000730082B07D1154C237803F00F031843F4
:102E400002431143217003B05DF8044B7047DC6806
:102E500014F0EF0F10D00623CDE7E36813F0EF0F67
:102E600001D00623D3E7E36813F0020F14BF072352
:102E70000823CCE70123BEE7DB6813F0020F14BF81
:102E800007230823B7E700BF003C0240143C024080
:102E9000044B1A7802F0F3021A701A781043187073
:102EA000704700BF143C0240264A2749137882B07D
:102EB00043F00203082013708DF80700CB68DA0393
:102EC00037D4CB68DB0621D505238DF807309DF874
:102ED0000730012B15D11C4A09E0D368DB061BD54E
:102EE00005238DF807309DF80730012B09D1D368F1
:102EF000D903F2D501238DF807309DF80730012B57
:102F0000F5D09DF80700C0B202B07047CB6813F04F
:102F1000EF0F10D00623D8E7D36813F0EF0F01D0DE
:102F20000623DEE7D36813F0020F14BF072308233C
:102F3000D7E70123C9E7CB6813F0020F14BF0723BB
:102F40000346C2E7143C0240003C0240024B586971
:102F5000C0F34710704700BF003C0240014B188887
:102F600080B27047163C0240024B1878AA3818BF4E
:102F700001207047153C0240024B187800F00C000D
:102F8000704700BF143C024029B9054A136923EA7F
:102F9000000010617047024B1A69104318617047B6
:102FA000003C0240034BDB68034214BF01200020B9
:102FB000704700BF003C0240014BD860704700BF23
:102FC000003C02400B4BDA68D1030AD4DA68D2061F
:102FD00001D505207047DA6812F0EF0F03D0062004
:102FE000704701207047DB6813F0020F14BF072001
:102FF00008207047003C024082B00822234B8DF825
:103000000720DA68D20337D4DA68D00621D5052341
:103010008DF807309DF80730012B15D11B4A09E0C8
:10302000D368DB061BD505238DF807309DF80730E4
:10303000012B09D1D368D903F2D501238DF80730CC
:103040009DF80730012BF5D09DF80700C0B202B003
:103050007047DA6812F0EF0F10D00623D8E7D36874
:1030600013F0EF0F01D00623DEE7D36813F0020F51
:1030700014BF07230823D7E70123C9E7DB6813F050
:10308000020F14BF07230823C2E700BF003C024021
:103090004FF0204360B143F2D20243F82020800079
:1030A00000F120406FF070434360C0F80431704776
:1030B00043F2DB021A60F2E7F0B400F10C018EC9B2
:1030C0008468456825430D431543C469026A816AD3
:1030D0001D433D43436A25432A4342EA0305C26A2E
:1030E000036B046829434FF020460A43134346F814
:1030F00024308368082B24D0456B0468AB692968A9
:103100006A68AF68EE68194341EA021141EA072292
:103110002B69696942EA064242EA035301344FF0DF
:10312000204243EA016342F82430C36AB3F5804F7A
:103130000FD00268124B6FF0704143F82210F0BCC0
:10314000704703689B0033441A6842F040021A60DB
:10315000D2E7846B05682768A1696268A36826695D
:1031600064690748394341EA021242EA032242EA0B
:10317000065343EA046340F82530F0BC704700BFB3
:10318000040100A0416B022330B443600F220023EE
:103190004FF480554FF400544562846203608360AD
:1031A000C360036143618361C3610362C3620363FC
:1031B0000A60416B4A60446BFF21A160446BE2608E
:1031C000446B2261446B6261446BA361846B226037
:1031D000846B6260846BA160816BCA60816B0A61E1
:1031E000816B4A61826B936130BC7047800000F153
:1031F000204021B90268044B134003607047036804
:1032000043F0010303607047FEFF0F0010280CBF5E
:10321000054B064B4FF0FC321820402118605960D6
:103220009A60DA60704700BF600000A0800000A0D4
:103230002DE9F041066AC36945688168B2689C68F7
:103240000769D0F800E0D3F80C80D0F818C082B03D
:1032500029430192C2685D6841F0080111432404CA
:10326000019A394344EA052774681D6843691204CA
:1032700042EA04223468F668BEF1100F41EA4321A5
:1032800047EA05000CBF074B074B224341EA4C318C
:1032900040EA086042EA066219609860DA6002B0AB
:1032A000BDE8F081600000A0800000A0C16910238B
:1032B00003600022FC2342608260C26002614261BE
:1032C00082610B60C2695360C2699360C269D36056
:1032D000026A1360026A5360026A9360026AD360F2
:1032E000704700BF41B110280CBF084A084A136854
:1032F00043F004031360704710280CBF034A044ACC
:10330000044B11680B401360704700BF600000A0C1
:10331000800000A0FBFF0F0041B110280CBF084A3D
:10332000084A136843F040031360704710280CBF2D
:10333000034A044A044B11680B401360704700BFF6
:10334000600000A0800000A0BFFF0F0010280CBF8D
:10335000014B024B58697047600000A0800000A03C
:10336000054B4FF0FC3218200021186059609A601C
:10337000DA601A61704700BFA00000A030B490E886
:1033800028008168164C43F0100242EA452343EAC4
:1033900041332360C56895E80C00A968ED6809040D
:1033A00041EA0323134343EA0563A360056995E8F3
:1033B0000C00A968ED68090441EA0323134343EABA
:1033C0000563E360406990E80C008168C068090407
:1033D00041EA0323134343EA0063236130BC70478F
:1033E000A00000A0C168FC2300220260426082604D
:1033F0000B60C2685360C2689360C268D3600269A0
:10340000136002695360026993600269D360426984
:10341000136042695360426993604269D3607047A8
:10342000054A20B91168054B0B40136070471368BB
:1034300043F0040313607047A00000A0FBFF0F00DF
:1034400052B110281AD0B0F5807F0CBF0E4A0F4A37
:103450005368194351607047102809D0B0F5807F38
:103460000CBF094A094A536823EA010151607047B9
:10347000074A536823EA010151607047044A5368C0
:1034800019435160704700BF800000A0A00000A059
:10349000600000A010280AD0B0F5807F0CBF054B5B
:1034A000054B5B680B4214BF012000207047034BA3
:1034B0005B68F7E7800000A0A00000A0600000A00B
:1034C000102809D0B0F5807F0CBF064A064A536821
:1034D00023EA010151607047044A536823EA01015D
:1034E00051607047800000A0A00000A0600000A014
:1034F00010280ED0B0F5807F0CBF074B074B5B68E0
:1035000013EA010004D013EAD10314BF0120002004
:103510007047034B5B68F3E7800000A0A00000A0A9
:10352000600000A0102809D0B0F5807F0CBF064ACB
:10353000064A536823EAD10151607047044A536830
:1035400023EAD10151607047800000A0A00000A0D4
:10355000600000A008B53C4B984224D03B4B9842F9
:103560002BD03B4B984232D03A4B984239D03A4B11
:10357000984240D0394B984247D0394B98424ED070
:10358000384B984255D0384B984200D008BD0121A5
:103590004FF4807001F042F800214FF48070BDE8D4
:1035A000084001F03BB80121084601F037F800213E
:1035B0000120BDE8084001F031B80121022001F0EE
:1035C0002DF800210220BDE8084001F027B80121B4
:1035D000042001F023F800210420BDE8084001F098
:1035E0001DB80121082001F019F800210820BDE8CC
:1035F000084001F013B80121102001F00FF800215C
:103600001020BDE8084001F009B80121202001F098
:1036100005F800212020BDE8084000F0FFBF01218F
:10362000402000F0FBFF00214020BDE8084000F0F2
:10363000F5BF0121802000F0F1FF00218020BDE8CE
:10364000084000F0EBBF00BF000002400004024051
:1036500000080240000C024000100240001402402A
:1036600000180240001C0240002002400022F0B579
:1036700013460126032704E00133102B02F1020256
:103680002FD00D6806FA03F434EA0505F4D1D0F81A
:1036900000E007FA02F5ED430EEA050EC0F800E07F
:1036A00091F804E0D0F800C00EFA02FE4EEA0C0ECB
:1036B000C0F800E091F804E00EF1FF3EBEF1010F0A
:1036C00007FA02FC0ED9C46824EA0C04C460CC7961
:1036D000C568944001332C43102BC46002F10202F0
:1036E000CFD1F0BDD0F808E005EA0E05856091F86D
:1036F00005E085680EFA02FE4EEA0505856045681C
:1037000025EA040444608C7945689C40A4B22C43AB
:103710004460D8E700234FF6FF72026003714371E3
:103720008371C371704700BF82B04FF4803301933F
:10373000019B0B430193019BC361C161019BC36169
:10374000C3690193C369019302B0704703691942C9
:1037500014BF012000207047006980B2704700BF8D
:103760004369194214BF012000207047406980B2AC
:10377000704700BF01837047418370470AB9418396
:1037800070470183704700BF4161704743695940EA
:103790004161704710B4CB0800EB830001F00701D2
:1037A000046A89000F238B4024EA03030362036A3F
:1037B0008A4042EA030101625DF8044B704700BF92
:1037C00008B50121202000F037FF00212020BDE8AE
:1037D000084000F031BF00BF30B40F4B1A6822F030
:1037E000F0021A601D680468816842682C43214316
:1037F0000A431A604268402A07D11A6822F48032CC
:103800001A60C26819680A431A60034A136843F0D1
:103810000403136030BC70470004065000230360AB
:1038200043608360C3607047024A136843F0040337
:103830001360704700040650044B9A6822F01F0280
:103840009A609A6810439860704700BF0004065061
:10385000014B5860704700BF00040650024B1868C7
:10386000C0F30320704700BF00040650054BDA6820
:1038700002601A6942605A6982609A69C260DB69B3
:103880000361704700040650024A936843F4807352
:10389000936070470004065009490B6A03608B6807
:1038A00043600B6840F8083F002303F13E020133F8
:1038B00051F8222040F8042F332BF6D1704700BF77
:1038C000000406500D4B026810B41A6242689A60F8
:1038D00050F8082F1A601A6842F004021C461A6059
:1038E000002303F13E02013350F8041F44F8221074
:1038F000332BF6D15DF8044B704700BF000406502F
:10390000054A136818B923F008031360704743F0A1
:1039100008031360704700BF00040650054A136A8D
:1039200029B923EA000000F0FF0010627047184335
:103930001062704700040650044BC2044CBF1B6861
:103940005B6A184214BF0120002070470004065033
:10395000014BC0435862704700040650044A516A44
:10396000136A0B40034214BF01200020704700BFC0
:1039700000040650C043024BC0B25862704700BFFB
:1039800000040650F0B501F003038DB00024DB0005
:10399000ADF806400D46074602941646ADF80630CF
:1039A000FFF70EFF8022202303A8049403920593BF
:1039B000FFF712FFBDF8060080B2FFF73DFF3C465F
:1039C00035B154F8040BFFF743FFE31BAB42F8D3C8
:1039D000FFF75AFF00E068B10820FFF7ADFF029B38
:1039E00001330293029BB3F5803FF4D110B1002064
:1039F0000DB0F0BD07A8FFF739FF07A80FC800BA40
:103A000009BA12BA1BBA86E80F0001200DB0F0BD4A
:103A10002DE9F0410D468CB003F003011F4605F07F
:103A200003030024C900DB00ADF804409046ADF864
:103A3000064006460294ADF80410ADF80630FFF7D4
:103A4000BFFE4022802120239542039104920593DA
:103A500024D803A80694FFF7BFFEBDF8060080B285
:103A6000FFF7EAFE3DB1344654F8040BFFF7F0FED1
:103A7000A31B9D42F8D8FFF707FF00E0D0B1082054
:103A8000FFF75AFF029B01330293029BB3F5803F7D
:103A9000F4D178B100200CB0BDE8F0814FF4803350
:103AA00003A80693FFF798FEBDF8060080B2FFF763
:103AB000C3FED8E7BDF8040080B2FFF7BDFE444660
:103AC0003FB154F8040BFFF7C3FEC8EB04039F4259
:103AD000F7D8FFF7D9FE0023029300E058B1082081
:103AE000FFF72AFF029B01330293029BB3F5803F4D
:103AF000F4D10028CED1BDF8060080B2FFF79CFEBD
:103B0000344635B154F8040BFFF7A2FEA31B9D42C7
:103B1000F8D8FFF7B9FE0023029300E058B108205F
:103B2000FFF70AFF029B01330293029BB3F5803F2C
:103B3000F4D10028AED107A8FFF798FE07A80FC858
:103B4000129C00BA09BA12BA1BBA20606160A26066
:103B5000E36001209FE700BFF0B501F003038DB0E3
:103B60000024DB00ADF806400D46074616460294D9
:103B7000ADF80630FFF724FE202303A80394049435
:103B80000593FFF729FEBDF8060080B2FFF754FE4B
:103B90003C4635B154F8040BFFF75AFEE31BAB4229
:103BA000F8D3FFF771FE00E068B10820FFF7C4FE0C
:103BB000029B01330293029BB3F5803FF4D110B115
:103BC00000200DB0F0BD07A8FFF750FE08A80FC8F1
:103BD000079C00BA24BA09BA12BA1BBA7060012055
:103BE0003460B160F26033610DB0F0BD2DE9F04199
:103BF0000D468CB003F003011F4605F003030024BB
:103C0000DB00C900ADF804409046ADF8064006461A
:103C10000294ADF80410ADF80630FFF7D1FD402254
:103C20002023954203940492059324D803A8069474
:103C3000FFF7D2FDBDF8060080B2FFF7FDFD3DB1F4
:103C4000344654F8040BFFF703FEA31B9D42F8D83B
:103C5000FFF71AFE00E0D0B10820FFF76DFE029BCF
:103C600001330293029BB3F5803FF4D178B1002079
:103C70000CB0BDE8F0814FF4803303A80693FFF742
:103C8000ABFDBDF8060080B2FFF7D6FDD8E7BDF862
:103C9000040080B2FFF7D0FD44463FB154F8040B56
:103CA000FFF7D6FDC8EB04039F42F7D8FFF7ECFD02
:103CB0000023029300E058B10820FFF73DFE029B6D
:103CC00001330293029BB3F5803FF4D10028CED19B
:103CD000BDF8060080B2FFF7AFFD344635B154F8A9
:103CE000040BFFF7B5FDA31B9D42F8D8FFF7CCFDF1
:103CF0000023029300E058B10820FFF71DFE029B4D
:103D000001330293029BB3F5803FF4D10028AED17A
:103D100007A8FFF7ABFD08A80FC8079C129D00BAC3
:103D200024BA09BA12BA1BBA68602C60A960EA60AA
:103D30002B6101209CE700BF08B5174B984212D0B9
:103D4000164B98421BD0164B984200D008BD01215B
:103D50004FF4000000F08CFC00214FF40000BDE89F
:103D6000084000F085BC01214FF4001000F080FCF9
:103D700000214FF40010BDE8084000F079BC01219B
:103D80004FF4800000F074FC00214FF48000BDE887
:103D9000084000F06DBC00BF0054004000580040D7
:103DA000005C0040F0B5044685B068460D46A68824
:103DB00000F078FB029B314ADFF8C8E0A2FB031257
:103DC00026F03F06970C3604360CB8B20643A680A0
:103DD000218821F001010904090C21802A6872451B
:103DE00023D85200B3FBF2F39BB2032B00F1010086
:103DF00098BF04232084A38323889BB243F001034C
:103E000023802388A9886A8923F4816323F002032D
:103E10001B040A431B0C13439BB22380AA892B89E2
:103E200013439BB2238105B0F0BDE8884BF6FF71C8
:103E300088421DD002EB820202EB8202B3FBF2F356
:103E40009BB243F48043C3F30B020AB943F001036E
:103E50004FF496710A4801FB07F280FB0201D2176A
:103E6000C2EBA112013292B243F400432284C2E7B2
:103E700002EB4200B3FBF0F39BB2E4E783DE1B43AB
:103E8000D34D6210A0860100002310B44BF6FF71E1
:103E900041F288344FF480420460C1808281838083
:103EA000038143815DF8044B704700BF038829B943
:103EB00023F001031B041B0C038070479BB243F0EB
:103EC00001030380704700BF038829B923F480737E
:103ED0001B041B0C038070479BB243F48073038068
:103EE000704700BF038829B923F400731B041B0C1F
:103EF000038070479BB243F400730380704700BF98
:103F000022B901F0FE0189B20182704741F001013E
:103F100089B20182704700BF038829B923F4806306
:103F20001B041B0C038070479BB243F48063038027
:103F3000704700BF83899BB201F0FE0123F0FE03AE
:103F400019438181704700BF838929B923F0010398
:103F50001B041B0C838170479BB243F001038381D8
:103F6000704700BF038829B923F040031B041B0CD2
:103F7000038070479BB243F040030380704700BF4B
:103F8000038819B9C3F30E03038070476FEA4343F4
:103F90006FEA53439BB20380704700BF038829B187
:103FA00023F080031B041B0C038070479BB243F07B
:103FB00080030380704700BFB1F5804F838B05D02D
:103FC00023F480431B041B0C838370479BB243F490
:103FD00080438383704700BFB1F5006F038805D02D
:103FE00023F400631B041B0C038070479BB243F453
:103FF00000630380704700BFB1F5005F038805D000
:1040000023F400531B041B0C038070479BB243F442
:1040100000530380704700BF038829B923F01003C1
:104020001B041B0C038070479BB243F010030380FA
:10403000704700BF01827047008AC0B2704700BF5E
:10404000038829B923F480531B041B0C0380704799
:104050009BB243F480530380704700BFB1F5006FFB
:10406000038805D023F400631B041B0C03807047F6
:104070009BB243F400630380704700BF038829B9F3
:1040800023F020031B041B0C038070479BB243F0FA
:1040900020030380704700BF008BC0F307207047E8
:1040A000838829B923F400631B041B0C83807047A9
:1040B0009BB243F400638380704700BF838829B9B3
:1040C00023F480531B041B0C838070479BB243F482
:1040D00080538380704700BF82B00023019301901A
:1040E000019B19440191019B188880B202B070476E
:1040F00083889BB21AB923EA010181807047194372
:1041000081807047838A008B9BB243EA004321F091
:104110007F4203EA0200401AB0FA80F0400970477B
:10412000838A028B98B240EA024020F07F407047B9
:1041300082B000230A0F0093019301900092009B2C
:1041400021F07F4153B1019B14330193019B1B6804
:10415000194214BF0120002002B07047019B1833A0
:10416000090C0193F2E700BFC94389B2818270470D
:104170008388808A80B208409BB206D003F4E06353
:1041800013EA114314BF012000207047C94389B2CC
:1041900081827047014B1860704700BF00300040BB
:1041A000014B5860704700BF00300040014B9860E1
:1041B000704700BF00300040024B4AF6AA221A6046
:1041C000704700BF00300040024B4CF6CC421A60F2
:1041D000704700BF00300040034BDB68184214BF3B
:1041E00001200020704700BF0030004008B50121C9
:1041F0004FF0805000F03CFA00214FF08050BDE8B5
:10420000084000F035BA00BF014B1860704700BF8E
:1042100020000E42034A136823F0E00318431060A5
:10422000704700BF00700040014B1860704700BF2E
:1042300010000E42014B1860704700BFA0000E42F4
:10424000014B1860704700BFA4000E42054A136876
:1042500018B143F480431360704723F48043136024
:10426000704700BF00700040014B1860704700BFEE
:1042700024000E4210B40C4C0C4A236823F00303B4
:10428000184320601369012943F00403136108D027
:1042900020BF064A136923F0040313615DF8044B41
:1042A000704730BFF5E700BF0070004000ED00E050
:1042B000074B08491A6842F004021A601A6842F073
:1042C00002021A600B6943F004030B6130BF7047B0
:1042D0000070004000ED00E0034B5B68034214BF38
:1042E00001200020704700BF00700040024A1368A0
:1042F00043EA800010607047007000400A4B0B4892
:104300001A68002142F001021A6099601A6822F0CE
:10431000847222F480321A6058601A6822F4802273
:104320001A60D960704700BF003802401030002486
:10433000024B00221A701870704700BF023802400A
:1043400082B000230A4A019302E0B3F5C06F08D09F
:10435000136813F4003F019B03F101030193019BD8
:10436000F3D0034B1868C0F3404002B0704700BF61
:1043700000380240034A136823F0F80343EAC00000
:104380001060704700380240014B1860704700BF52
:1043900000004742064B002201281A701A7005D00F
:1043A000042802D105221A707047704718707047B0
:1043B00070380240014B1860704700BF800E4742C2
:1043C00030B4029C064D40EA046001435B08013BA7
:1043D00041EA821242EA0340686030BC704700BF85
:1043E00000380240014B1860704700BF6000474230
:1043F0000907034B41EA8010C3F88400704700BFEF
:1044000000380240014B1860704700BF6800474207
:10441000014B1860704700BF4C004742034A936845
:1044200023F0EC6319430843906070470038024062
:10443000034A936823F07843194308439060704718
:1044400000380240034A936823F003031843906046
:10445000704700BF00380240024B986800F00C0023
:10446000704700BF00380240034A936823F0F0030E
:1044700018439060704700BF00380240034A9368B9
:1044800023F4E05318439060704700BF00380240A7
:10449000034A936823F4604343EAC0009060704786
:1044A0000038024010B4214CA36803F00C03042B25
:1044B0001BD0082B1CD01E4B03601C4A1D4994685E
:1044C000C4F303140C5DE34043609468C4F3822496
:1044D0000C5D23FA04F4846092685DF8044BC2F327
:1044E00042328A5CD340C3607047134B0360E4E7F9
:1044F0006368616813F4800F636818BF0E4C01F0A5
:104500003F020CBF0A49B4FBF2F1C3F3881308BFA2
:10451000B1FBF2F101FB03F2044B5B68C3F301430F
:1045200001335B00B2FBF3F30360C6E700380240DF
:104530000024F4000400002040787D0100F4407362
:10454000B3F5407F09D108498B6820F0704223F40D
:10455000F81322F4407213438B60034A136FC0F3C5
:104560000B0018431067704700380240014B186079
:10457000704700BF3C0E4742014B1860704700BFB8
:10458000400E4742014B1860704700BF5C01474234
:1045900029B9054A136B23EA000010637047024BE8
:1045A0001A6B1043186370470038024029B9054A56
:1045B000536B23EA000050637047024B5A6B104361
:1045C000586370470038024029B9054A936B23EAC3
:1045D000000090637047024B9A6B104398637047DA
:1045E0000038024029B9054A136C23EA0000106420
:1045F0007047024B1A6C1043186470470038024031
:1046000029B9054A536C23EA000050647047024BF5
:104610005A6C1043586470470038024029B9054A63
:10462000136923EA000010617047024B1A691043B6
:10463000186170470038024029B9054A536923EAD6
:10464000000050617047024B5A691043586170472F
:104650000038024029B9054A936923EA00009061B5
:104660007047024B9A6910439861704700380240C6
:1046700029B9054A136A23EA000010627047024B09
:104680001A6A1043186270470038024029B9054A77
:10469000536A23EA000050627047024B5A6A104383
:1046A000586270470038024029B9054A136D23EA61
:1046B000000010657047024B1A6D10431865704773
:1046C0000038024029B9054A536D23EA00005065BD
:1046D0007047024B5A6D10435865704700380240CE
:1046E00029B9054A936D23EA000090657047024B93
:1046F0009A6D1043986570470038024029B9054A01
:10470000136E23EA000010667047024B1A6E1043C6
:10471000186670470038024029B9054A536E23EAEB
:10472000000050667047024B5A6E1043586670473F
:104730000038024029B9054A137823EA00001070B6
:104740007047024B1A781043187070470D380240BA
:104750004309012B0BD0022B094B0CBF1B6F5B6F66
:1047600000F01F0023FA00F000F001007047044B36
:104770001B6800F01F0023FA00F000F001007047F2
:1047800000380240024A536F43F08073536770470A
:1047900000380240034BDB68184214BF01200020A0
:1047A000704700BF00380240014B1870704700BFCF
:1047B0000E38024008B501214020FFF73DFF0021DF
:1047C0004020BDE80840FFF737BF00BF054A136827
:1047D00018B923F004031360704743F00403136017
:1047E000704700BF00080650014B9868704700BF33
:1047F00000080650054A136818B923F0080313602F
:10480000704743F008031360704700BF000806506C
:10481000034B5B68184214BF01200020704700BFA3
:1048200000080650024B6FEA00105860704700BF46
:1048300000080650034B5B68184214BF012000209B
:10484000704700BF00080650C043024BC0B258601A
:10485000704700BF0008065030B4374984B00023C9
:10486000CA205322019348624A620293CB685806D9
:1048700019D44FF0FF33CB6000E04AB9CA68029BFD
:1048800001330293029BB3F5803F02F04002F4D162
:10489000294BDB68590606D40020274BFF225A62B9
:1048A00004B030BC7047244942F2011300220A6070
:1048B0004B608B6803F007038B6000E04AB9CA685D
:1048C000019B01330193019BB3F5803F02F0040289
:1048D000F4D1194BDA685207DED59968174C0022DB
:1048E00053214FF6FF75CA209A605D611C619A6181
:1048F000DA611A62DA601A64039258625962DA68FD
:1049000022F0A002DA60194600E04AB9CA68039BA7
:1049100001330393039BB3F5003F02F02002F4D16F
:10492000054BD86810F0200002D1FF225A62B4E78C
:10493000FF225A620120B0E700280040FF007F00FC
:1049400010B41E4983B00023CA2453224C624A6229
:104950000193CB685B0615D44FF0FF33CB6000E0CA
:104960004AB9CA68019B01330193019BB3F5803FAB
:1049700002F04002F4D1114BDB6813F0400301D187
:10498000184614E00D4B9A6822F040029A6099682C
:1049900002680A439A6082681A6141681A6942EAA9
:1049A00001421A61DA6822F08002DA600120034BCA
:1049B000FF225A6203B05DF8044B704700280040A4
:1049C00000217F22FF2380E80E007047044B20B9AE
:1049D000CA21532259625A627047FF225A627047B5
:1049E0000028004082B000230E490193CB685B068B
:1049F00014D44FF0FF33CB6000E04AB9CA68019B82
:104A000001330193019BB3F5803F02F04002F4D1E2
:104A1000044BD868C0F3801002B07047012002B088
:104A2000704700BF00280040024AD36823F080038B
:104A3000D3607047002800400F4982B05323002004
:104A4000CA2201904A624B62CB6823F0A003CB607C
:104A500000E04AB9CA68019B01330193019BB3F599
:104A6000003F02F02002F4D1034BD868FF22C0F3CC
:104A700040105A6202B070470028004010B41D492F
:104A800083B00023CA2453224C624A620193CB684C
:104A90005B061BD44FF0FF33CB6000E04AB9CA6815
:104AA000019B01330193019BB3F5803F02F040026B
:104AB000F4D1104BDB6813F0400307D118460D4BBF
:104AC000FF225A6203B05DF8044B704758B9094A97
:104AD000936823F010039360064AD36823F08003A1
:104AE000D3600120EBE7034A936843F0100393601F
:104AF000F2E700BF002800400A4B5322CA21596246
:104B00005A629A6830B902F0DF029A60054BFF22C0
:104B10005A62704742F020029A60024BFF225A62AA
:104B2000704700BF0028004030B4524B82B00028CC
:104B300038D19D6815F0400569D1CD700B78092BEF
:104B40004FF0000207D90A3BDBB20132092BD2B287
:104B5000F9D81201D2B24878134309284FEA034327
:104B600040F2858000220A38C0B201320928D2B250
:104B7000F9D81201D4B28A782043092A4FEA0021D9
:104B80004FF0000407D90A3AD2B20134092AE4B23C
:104B9000F9D82401E4B22B4343EA0100224340EA5E
:104BA00002040DE09C6814F040032DD1CB704D78C9
:104BB0000A788C78290241EA0242224342EA03043D
:104BC0002C490023CA20532248624A620093CB68D2
:104BD0005B061FD44FF0FF33CB6000E04AB9CA68D0
:104BE000009B01330093009BB3F5803F02F040022D
:104BF000F4D1204BDB6813F040000BD11D4BFF229A
:104C00005A6202B030BC7047CC782304CFE7CD782D
:104C10002D0493E7174B04F07F3222F0FE421A6016
:104C2000DA68532122F080020024CA20DA6001945D
:104C300058625962DA6822F0A002DA60194600E090
:104C40004AB9CA68019B01330193019BB3F5003F48
:104C500002F02002F4D1074BD86810F0200002D1F6
:104C6000FF225A62CAE7FF225A620120C6E70024E7
:104C700081E700BF002800400023C3700370437029
:104C800083707047F0B5164B1B6803F07F3323F039
:104C9000FE431A0CC3F3062702F0400EDBB202F00B
:104CA0003F0681F803E00E704F708B70B8B93D0974
:104CB0001C09360906EB860605EB850504EB840422
:104CC00002F00F0207F00F0703F00F0302EB46029A
:104CD00007EB450503EB44040A704D708C70F0BD82
:104CE00000280040014B986A5B687047002800402C
:104CF00070B483B000283AD14878C20604D520F0B9
:104D000010000A30C0B24870CB78092B4FF0000475
:104D100007D90A3BDBB20134092BE4B2F9D82401EC
:104D2000E4B2234309284FEA03467AD900220A381D
:104D3000C0B201320928D2B2F9D81201D4B28A78AD
:104D40002043092A4FEA00204FF0000507D90A3A0C
:104D5000D2B20135092AEDB2F9D82D01EDB20B78A6
:104D600046EA433303432A4343EA020509E048780D
:104D7000CD788C780A78000240EA0541214341EA67
:104D8000423529480023CA215322416242620093DE
:104D9000C3685B0619D44FF0FF33C36000E04AB923
:104DA000C268009B013300930099B1F5803F02F087
:104DB0004002F4D11C4BD86810F0400005D11A4BCA
:104DC000FF225A6203B070BC7047174925F07F423A
:104DD00022F0C0024A60CB68002423F08003CA207E
:104DE0005322CB60019448624A62CB6823F0A0034F
:104DF000CB6000E04AB9CA68019B01330193019B73
:104E0000B3F5003F02F02002F4D1074BD86810F050
:104E1000200002D1FF225A62D1E7FF225A6201200C
:104E2000CDE700248BE700BF0028004001230022CB
:104E3000C270037083704370704700BFF0B4164BAC
:104E40005B6823F07F4323F0C003C3F30724DDB284
:104E5000C3F3423704F01F061B0C0F704E70CB706B
:104E60008D70B8B936092A091809B70002EB820219
:104E700004F00F0405F00F053E4400EB800003F042
:104E80000F0305EB420204EB460403EB40038A7078
:104E90004C70CB70F0BC704700280040F0B5404B20
:104EA000002851D19D6815F0400575D1D570137853
:104EB000092B4FF0000007D90A3BDBB20130092B68
:104EC000C0B2F9D80001C0B254780343092C4FEAAC
:104ED00003434FF0000607D90A3CE4B20136092C1F
:104EE000F6B2F9D83601F6B29078344309284FEA81
:104EF00004244FF0000707D90A38C0B20137092847
:104F0000FFB2F9D83F01FFB292F80CE0BEF1090FF1
:104F100047EA00074FF000060AD9AEF10A0E5FFA21
:104F20008EFE0136BEF1090FF6B2F6D83601F6B2A2
:104F300090685268024315432B431C434EEA060611
:104F40003C4344EA066615E09E6816F0400320D113
:104F5000D370D2F808E05068947817785578167BAB
:104F60004EEA0000204340EA074242EA052242EAB4
:104F700006661E430A4B5322B1F5807F4FF0CA00EC
:104F800058625A620CBFDE611E62054BFF225A62F4
:104F9000F0BDD6783304DCE7D5782D0487E700BF71
:104FA00000280040002301220273036083604360F5
:104FB000704700BF2DE9F047244BB1F5807F0CBF4F
:104FC000DB691B6AC3F30741C3F3072EDFB21E0E72
:104FD00003F0804901F03F0501F0400A0EF07F0424
:104FE00007F07F0806F03F0C03F08033157082F85D
:104FF00003A0547082F8028082F80CC0C2F80890B6
:10500000536008BB2D0924094FEA18104FEA1C13FE
:1050100005EB850504EB840400EB800003EB8303C0
:1050200001F00F010EF00F0E07F00F0706F00F064C
:1050300001EB45010EEB440407EB400006EB430394
:105040001170547090701373BDE8F0870028004011
:1050500030B4154B82B053220025CA2401955C62FE
:105060005A629A68E1B922EA00029A60000A194677
:1050700000E04AB9CA68019B01330193019BB3F573
:10508000803F02EA0002F4D1074BDB68034214BF01
:1050900001200020044BFF225A6202B030BC70474E
:1050A000104398600120F5E70028004030B4084B19
:1050B0000A43CA255324B0F5807F5D625C620CBF51
:1050C0005A649A64024BFF225A6230BC704700BF98
:1050D00000280040044BB0F5807F0CBF586C986CE2
:1050E000C0F30E00704700BF00280040074BCA21E4
:1050F000532259625A629A6822F007029A609A68AB
:10510000FF21104398605962704700BF002800409B
:10511000054B10B45321CA24FF225C6259625861C6
:105120005A625DF8044B704700280040014B5869F3
:1051300080B270470028004010B4144983B0532354
:105140000024CA2201944A624B628B68C8B923F4D6
:1051500080638B6000E04AB9CA68019B0133019308
:10516000019BB3F5803F02F00402F4D1074BD868ED
:10517000C0F38000054BFF225A6203B05DF8044B78
:10518000704743F480638B600120F3E70028004000
:1051900010B4094BCA2453225C625A629A6822F402
:1051A00080229A609A6811430843FF2298605A62ED
:1051B0005DF8044B704700BF00280040024B986820
:1051C00000F48020704700BF0028004010B4094B55
:1051D000CA2453225C625A629A6822F4E0029A60FE
:1051E0009A6811430843FF2298605A625DF8044BA5
:1051F000704700BF0028004030B4174C82B0002335
:10520000CA255322656262620193E3685B0615D486
:105210004FF0FF33E36000E04AB9E268019B0133DD
:105220000193019BB3F5803F02F04002F4D10A4B99
:10523000DB6813F0400301D1184607E0064B014339
:105240009961DA6822F08002DA600120024BFF22C5
:105250005A6202B030BC70470028004010B41D49AB
:1052600083B00023CA2453224C624A620193CB6864
:105270005B061BD44FF0FF33CB6000E04AB9CA682D
:10528000019B01330193019BB3F5803F02F0400283
:10529000F4D1104BDB6813F0400307D118460D4BD7
:1052A000FF225A6203B05DF8044B704758B9094AAF
:1052B000936823F080039360064AD36823F0800349
:1052C000D3600120EBE7034A936843F080039360C7
:1052D000F2E700BF002800400A4B5322CA2159625E
:1052E0005A629A6830B922F400029A60054BFF2294
:1052F0005A62704742F400029A60024BFF225A62DF
:10530000704700BF00280040074BCA215322596252
:105310005A629A6822F400229A609A68FF21104328
:1053200098605962704700BF0028004030B4114DAA
:10533000CA2453236C626B62EB68DC030AD5EB680A
:10534000DB0307D54FF4003301E0013B02D0EC68EA
:10535000E403FAD4074BDC68E40308D40A4310439F
:10536000D8630120034BFF225A6230BC70470020F3
:10537000F8E700BF0028004010B40B4B9B6823F4F3
:10538000006323F0080359B90343074ACA24532092
:10539000FF2154625062936051625DF8044B704784
:1053A00043F400630343F0E700280040F0B52D4BC1
:1053B0001F6B5B6B07F07F3727F0FE4623F07F43C0
:1053C000350C23F0C004C6F306268F704E7005F02E
:1053D0003F0EC4F3042603F03F0305F04005002709
:1053E000C4F3423481F800E0CD70D77093705670EA
:1053F0001470A8BB0C7848788B78270906091D091A
:1054000006EB860605EB850507EB870704F00F041E
:1054100000F00F0003F00F0300EB460003EB450321
:1054200004EB47040C7048708B70507891781378B7
:1054300006090D091C0906EB860600F00F0005EBB6
:10544000850501F00F0104EB840403F00F0300EB6A
:10545000460001EB450103EB44035070917013705B
:10546000F0BD00BF00280040014B986B704700BFA3
:1054700000280040054A136C19B143EA400010644B
:10548000704723EA40001064704700BF00280040C6
:1054900029B9054A136C23EA000010647047024BD7
:1054A0001A6C10431864704700280040044B1A6CB3
:1054B00022F4C0521A641A6C10431864704700BF7B
:1054C00000280040044B1A6C22F4E0621A641A6C43
:1054D00010431864704700BF00280040044B1A6C4A
:1054E00022F4C0421A641A6C10431864704700BF5B
:1054F00000280040054A136C18B923F08003136498
:10550000704743F080031364704700BF00280040D9
:10551000054A136C18B943F400431364704723F42D
:1055200000431364704700BF0028004082B000228F
:10553000054B01920193019B03EB80000190019BBD
:10554000196002B0704700BF5028004082B00022AE
:10555000054B01920193019B03EB80000190019B9D
:10556000186802B0704700BF50280040044B1A6C06
:1055700022F480321A641A6C10431864704700BF1A
:1055800000280040044B1A6C22F400321A641A6C92
:1055900010431864704700BF00280040044B1A6C89
:1055A00022F480221A641A6C10431864704700BFFA
:1055B0000028004010B4244CCA2253236262636264
:1055C000E3681A0783B00AD5E3681B0707D54FF4D1
:1055D000805301E0013B02D0E2681207FAD41A4A74
:1055E000D36813F0080303D1946814F0100407D0B3
:1055F0000020154BFF225A6203B05DF8044B704740
:1056000008435323CA21D062019451625362D36884
:1056100023F0A003D360114600E04AB9CA68019B99
:1056200001330193019BB3F5003F02F02002F4D156
:10563000054BD86810F0200002D1FF225A62D8E74B
:10564000FF225A620120D4E70028004010B4114B19
:105650005322CA245C625A629A6881B920F004011C
:1056600022EA01029A601A6C00F0040022EA0000AB
:105670001864084BFF225A625DF8044B704720F013
:1056800004010A439A601A6C00F004001043186485
:10569000EFE700BF00280040044BDA6843F6777359
:1056A0001340034214BF012000207047002800402F
:1056B000054AD36880B240F0800003F0800363EABB
:1056C0000003D360704700BF0028004009490A6CFE
:1056D0008B68C96802F0040202EAD0320340134327
:1056E00006D089B211EA101314BF012000207047C0
:1056F0001846704700280040054AD368C0F30F10D1
:1057000040F0800003F0800363EA0003D360704739
:105710000028004008B501214FF40060FEF7B6FFF5
:1057200000214FF40060BDE80840FEF7AFBF00BFA6
:10573000F0B50C4F83684668C56804687A680169EB
:1057400090F814E043EA0600284322F4FD43204386
:1057500040EA010223F07F0313434EEA03037B6018
:10576000F0BD00BF002C01400023037503604360BF
:105770008360C36003617047014B1860704700BFCE
:10578000A0802542014B1860704700BF002C0140EB
:10579000024B186800F00300704700BF002C014066
:1057A00030B40A4903688B6083684468C568CA6876
:1057B00000691C432C4322F4FF6323F0070344EAEF
:1057C00000021343CB6030BC704700BF002C014087
:1057D0000023036043608360C3600361704700BFC0
:1057E000014B1869C0B27047002C0140044B82B0D5
:1057F0000344002201920193019B186802B0704794
:10580000142C014030B4094A036853624368936220
:105810008568C1680469D36A40692943214301430B
:1058200023F0F7030B43D36230BC7047002C0140D8
:1058300000234FF0FF3280E80C008360C3600361F7
:1058400043617047014B186B704700BF002C01404B
:10585000014BD3F880007047002C0140014BC3F886
:1058600080007047002C0140014B986C704700BFCE
:10587000002C0140014B1860704700BFA0852542F5
:10588000014B1860704700BFA4852542014B18608A
:10589000704700BFA8852542014B1860704700BFC4
:1058A000AC852542014B1860704700BFAC81254292
:1058B000014B1860704700BFB081254200F0010025
:1058C000024B80F001001860704700BFB481254290
:1058D000014B1860704700BFB8812542014B18602A
:1058E000704700BF8C85254229B9054AD36B23EA4E
:1058F0000000D0637047024BDA6B1043D8637047E7
:10590000002C0140034B5B6B184214BF01200020A8
:10591000704700BF002C0140014B9863704700BFE7
:10592000002C0140034B5B6B034214BF012000209D
:10593000704700BF002C0140014B9863704700BFC7
:10594000002C014008B5174B984212D0164B9842D4
:105950001BD0164B984200D008BD01214FF40040E7
:10596000FEF786FE00214FF40040BDE80840FEF738
:105970007FBE01214FF48050FEF788FE00214FF4D6
:105980008050BDE80840FEF781BE01214FF4804001
:10599000FEF76EFE00214FF48040BDE80840FEF7A0
:1059A00067BE00BF0030014000380040003C0040AE
:1059B000F0B44A880F888D88CC880B894E893A4389
:1059C0002A4322438D89CC891A43324303882A43D0
:1059D000224303F4415313439BB20380838B23F48C
:1059E00000631B041B0C83830B8A0382F0BC70478B
:1059F000838B23F47B6323F00F031B041B0C022215
:105A0000838302848B682DE9F041878B9342BFB278
:105A100050D02E4A8D889468002D14BF4FF0400856
:105A20004FF0200824023FD4284DB1F806E0D5F805
:105A30008440D5F884206D68254EC4F3881CBEF5DB
:105A4000007F05F03F04C2F30272B6FBF4F505FBDC
:105A50000CF4B4FBF2F430D0B4FBF8F202EB8202A7
:105A60005200B2FBF3F305339AB21A4BA3FB0223A5
:105A7000DB085A08941E03F00103FD2C94BF42EA90
:105A8000032302234EEA03039BB203840C884B8852
:105A90008D888A89274347F400673B432B43134390
:105AA0009BB28383BDE8F081936823F40003936085
:105AB0008B68B9E7B1F806E0E4E7240A04EB840454
:105AC0006400B4FBF3F305339AB2CEE7003802402A
:105AD00040787D01CDCCCCCC00230722028203800C
